:020000040800F2
:1000000050070020890100081F1400081912000879
:100010001D1400088F0200081918000800000000D5
:100020000000000000000000000000002314000891
:100030009102000800000000211400089514000837
:10004000A3010008A3010008A3010008A301000800
:10005000A3010008A3010008A3010008A3010008F0
:10006000A3010008A3010008A3010008A3010008E0
:10007000A3010008A3010008A3010008A3010008D0
:10008000A3010008A3010008A3010008A3010008C0
:10009000A3010008A3010008A3010008A3010008B0
:1000A000F91400081115000805150008A30100083F
:1000B000A30100081D150008A3010008A301000802
:1000C000A3010008A3010008A3010008A301000880
:1000D000A3010008A3010008A3010008A301000870
:1000E000A3010008A3010008A301000800F002F822
:1000F00000F03AF80AA090E8000C82448344AAF188
:100100000107DA4501D100F02FF8AFF2090EBAE885
:100110000F0013F0010F18BFFB1A43F0010318473B
:10012000AC1C0000CC1C0000103A24BF78C878C179
:10013000FAD8520724BF30C830C144BF04680C60ED
:10014000704700000023002400250026103A28BF35
:1001500078C1FBD8520728BF30C148BF0B60704739
:100160001FB51FBD10B510BD00F058F81146FFF7C0
:10017000F7FF01F063FB00F076F803B4FFF7F2FF3E
:1001800003BC00F07DF8000009488047094800479B
:10019000FEE7FEE7FEE7FEE7FEE7FEE7FEE7FEE737
:1001A000FEE7FEE704480549054A064B7047000094
:1001B000F7140008ED00000850010020500700204F
:1001C00050030020500300204FF0000200B51346FA
:1001D00094469646203922BFA0E80C50A0E80C5067
:1001E000B1F12001BFF4F7AF090728BFA0E80C5018
:1001F00048BF0CC05DF804EB890028BF40F8042B11
:1002000008BF704748BF20F8022B11F0804F18BF7D
:1002100000F8012B7047704770477047754600F033
:100220002BF8AE4605006946534620F00700854688
:1002300018B020B5FFF7B6FFBDE820404FF000062C
:100240004FF000074FF000084FF0000B21F00701BE
:10025000AC46ACE8C009ACE8C009ACE8C009ACE801
:10026000C0098D46704710B50446AFF300802046A4
:10027000BDE81040FFF781BF00487047F000002044
:1002800001491820ABBEFEE7260002007047FEE7DA
:10029000704772B6FEE7000070B5044600F0FEF845
:1002A0000546601C02D004480078044400F0F6F8CB
:1002B000401BA042FAD370BD080000202DE9F84F82
:1002C000DFF8B8910024A9F1040B23460F2709F1A8
:1002D000040AABF1040EC9E00125A5402A40AA4258
:1002E0007DD1674ED1F804C0ACEB0608B44532D0DE
:1002F00014DCBCF1030F3AD009DCBCF1000F2AD0AA
:10030000BCF1010F1CD0BCF1020F31D11DE0BCF1DA
:10031000110F17D0BCF1120F2AD119E0B8F5881FC0
:1003200019D006DCB8F5803F15D0B8F5801F1FD175
:1003300011E0B8F5001F0ED0B8F5041F18D10AE07F
:10034000CB6815E0CB681B1D12E0CB6808330FE0CB
:10035000CB680C330CE08B682BB1012B4FF00803FA
:1003600003D0456104E0042302E0056100E00023BE
:10037000FF2A01D8064601E000F104064FEA840591
:1003800001D9A5F12005D6F8008007FA05FC28EA76
:100390000C0803FA05F548EA0508C6F800804D6820
:1003A000ED0062D5374DAE6946F00106AE61AD692C
:1003B00024F0030605F001050095334D06EB050C0E
:1003C000DCF80850A607360F07FA06F825EA0805F4
:1003D000DFF8B880404503D14FF0000817E044E053
:1003E000DFF8AC80404502D14FF001080FE0DFF8A4
:1003F000A480404502D14FF0020808E0DFF8988061
:10040000404502D14FF0030801E04FF0040808FA1C
:1004100006F848EA0508CCF808804D68D9F800606D
:10042000ED024D4601D5164300E096432E604D681F
:10043000DAF80060AD02554601D5164300E0964358
:100440002E604D68DBF80060AD035D4601D51643B4
:1004500000E096432E604D68DEF80060ED037546BF
:1004600001D5164300E096432E60641C0D682A46B1
:10047000E5407FF431AFBDE8F88F0000080401408B
:10048000000011100010024000000140000801406F
:10049000000C014000100140001401400148806838
:1004A000704700000800002002488168027811446B
:1004B0008160704708000020074810B5016841F0CE
:1004C00010010160032000F075F80F2000F006F81D
:1004D00000F024F8002010BD0020024070B50D4D42
:1004E00004464FF47A712878B1FBF0F00A490968A4
:1004F000B1FBF0F000F0DCFA48B9102C07D2002272
:100500002146501E00F036F800206C6070BD0120BE
:1005100070BD000008000020140000200C4808B541
:10052000816941F001018161816901F0010100915E
:10053000C16941F08051C161C06900F080500090F4
:100540000448416821F0E06141F00071416008BD5C
:100550000010024000000140002809DB00F01F02EB
:10056000012191404009800000F1E020C0F8001115
:1005700070470000F0B40E4B1B680C46C3F3022317
:10058000C3F10705042D00D90425191D072901D23F
:10059000002300E0DB1E012606FA05F1491E21407A
:1005A00099409E40761E16403143F0BC01F035B9AB
:1005B0000CED00E0064900F0070208684FF6FF0363
:1005C000184040EA0220034A1043086070470000C8
:1005D0000CED00E00000FA052DE9F0470F4605009C
:1005E00061D0434E306800F00700B84209D230684D
:1005F00020F0070038433060306800F00700B84250
:1006000051D128683B4C810712D5400703D560685B
:1006100040F4E06060602878000703D5606840F42B
:10062000605060606068A96820F0F0000843606076
:100630002878C00728D06868012810D021680228CF
:1006400010D0890700292EDA616821F003010143E7
:100650006160FFF723FF804641F288390DE0216891
:100660008903EFE78901EDE7FFF718FFA0EB080129
:10067000494502D90320BDE8F0876068696800F049
:100680000C00B0EB810FEFD1306800F00700B842EA
:100690000BD9306820F0070038433060306800F034
:1006A0000700B84201D00120E5E72878400705D5CA
:1006B0006068E96820F4E06008436060287800071B
:1006C00006D56068296920F4605040EAC100606086
:1006D00000F038F86168084AC1F30311515CC84062
:1006E0000649086006480068FFF7F8FE0020C2E7E8
:1006F0000020024000100240B41D00081400002039
:100700000C0000200448054900684968044AC1F308
:100710000221515CC84070471400002000100240C4
:10072000C41D00080448054900684968044AC1F32B
:10073000C221515CC84070471400002000100240E4
:10074000C41D00080E4A51680E4801F00C03042B2A
:1007500011D0082B0FD10C48C1F38343C903C05CEF
:100760000AD55168084AC1F34041921E515C054ABE
:100770005043B0FBF1F07047044948437047000014
:100780000010024000127A00A41D000800093D007C
:100790002DE9F84F040070D02078C04DC00749D033
:1007A0006868C0F38100012807D06868C0F3810041
:1007B000022809D16868C00306D52868800339D5A6
:1007C00060680028E7D035E06068B0F5803F0BD066
:1007D00010B1B0F5A02F11D0286820F48030286027
:1007E000286820F4802002E0286840F480302860E7
:1007F000606890B1FFF752FE06460AE0286840F4B0
:1008000080202860F0E700BFFFF748FE801B6428C7
:1008100073D828688003F7D50CE0FFF73FFE064643
:1008200005E000BFFFF73AFE801B6428F0D8286877
:100830008003F7D420789A4E80074FF001094FF0DB
:10084000000839D5686810F00C0F07D06868C0F34D
:100850008100022809D16868C00306D4286880078F
:1008600014D52069012808D110E02069B0B1C6F87C
:100870000090FFF713FE074605E00AE1FFF70EFEC2
:10088000C01B0228C4D828688007F7D5286861698A
:1008900020F0F80040EAC10028600DE0C6F80080B2
:1008A000FFF7FCFD074604E0FFF7F8FDC01B022838
:1008B00023D828688007F7D4207800072CD57948FA
:1008C000A169D9B1C0F80090FFF7E8FD074604E040
:1008D000FFF7E4FDC01B02280FD8686A8007F7D530
:1008E00071484FF4FA510068B0FBF1F0009000BF7E
:1008F0000098411E0091FAD20EE080E0C0F800801E
:10090000FFF7CCFD074604E0FFF7C8FDC01B022837
:1009100075D8686A8007F7D42078400760D5E86901
:100920000027C00008D4E86940F08050E861E86919
:10093000012700F0805000905C480168C90513D47D
:100940000168834641F480710160FFF7A7FD82468C
:1009500006E000BFFFF7A2FDA0EB0A0064284ED816
:10096000DBF80000C005F5D5E06801280AD008B121
:10097000052813D0286A20F001002862286A20F098
:10098000040002E0286A40F001002862E06841F2B9
:10099000883B98B1FFF782FD82460BE0286A40F061
:1009A00004002862EEE700BFFFF778FDA0EB0A0124
:1009B00059455AD8286A8007F6D50CE0FFF76EFD36
:1009C000824605E0FFF76AFDA0EB0A0159454CD8C5
:1009D000286A8007F6D41FB1E86920F08050E861EA
:1009E000E06988B36968C1F38101022944D0022813
:1009F000C6F8608004D0FFF751FD044638E034E0CB
:100A0000FFF74CFD074604E0FFF748FDC01B022836
:100A10002BD828688001F7D4206AB0F5803F05D133
:100A20006868A16820F4003008436860D4E90801D0
:100A30000843696821F4741108436860C6F860903F
:100A4000FFF72CFD044606E025E000BFFFF726FD7A
:100A5000001B022809D828688001F7D51BE000BFD9
:100A6000FFF71CFD001B022802D90320BDE8F88F08
:100A700028688001F4D40EE00128F7D06868226A63
:100A800000F48031914204D1616A00F47010884210
:100A900001D00120EAE70020E8E700000010024052
:100AA00000004242800442421400002000700040D6
:100AB00010B5401EB0F1807F01D3012010BD4FF072
:100AC000E02460610F21601700F0A7FE0020A06104
:100AD00007202061002010BD7047704710B590F8C6
:100AE0003C20012A22D0012280F83C20CA688C6870
:100AF00022F4407222434C6822F4806222430C6844
:100B000022F4006222430C6922F4805222434C6991
:100B100022F400522243C969002322F480420A438E
:100B200001684A6480F83C30002010BD022010BDEE
:100B300070B590F83C20012A26D0012480F83C4072
:100B4000022280F83D2003685A689D6822F07006F2
:100B50000A6832435A600D4B02689A4208D0B2F1DB
:100B6000804F05D00A4B9A4202D00A4B9A4204D1D8
:100B7000496825F080031943916080F83D400021C9
:100B800080F83C10084670BD022070BD002C01406A
:100B9000000400400008004010B5040003D094F8A1
:100BA0003D0010B107E0012010BD002084F83C009A
:100BB000204600F01FF8022084F83D00211D206827
:100BC00000F0B2FC012084F8460084F83E0084F86E
:100BD0003F0084F8400084F8410084F8420084F823
:100BE000430084F8440084F8450084F83D00002068
:100BF00010BD000008B51D4A01681D4891421ED174
:100C0000816941F4006181618069002200F4006023
:100C1000009011461820FFF7ADFC1820FFF79CFC50
:100C2000002211461920FFF7A5FC1920FFF794FCBC
:100C3000002211461A20FFF79DFC1A2010E00D4AF1
:100C4000914211D1C16941F00201C161C069002224
:100C500000F00200009011461D20FFF78BFC1D20C4
:100C6000BDE80840FFF778BC08BD0000002C01403B
:100C7000001002400004004090F83D10012901D00E
:100C800001207047022180F83D1000680B4988421E
:100C900008D0B0F1804F05D00949884202D00949F7
:100CA000884204D1816801F00701062903D0016858
:100CB00041F001010160002070470000002C01405C
:100CC000000400400008004070B5044690F83C0065
:100CD0000025012817D0012684F83C60022084F802
:100CE0003D002068826822F0770222F47F42826011
:100CF0000868502838D00DDC20284FD005DC90B390
:100D0000102811D14AE0022070BD302846D040287A
:100D10000AD13BE060282FD070280DD0B0F5805F5D
:100D200003D0B0F5005F12D0012584F83D600020AB
:100D300084F83C00284670BDCB68D1E901212068C9
:100D400000F035FC2068816841F0770109E0CB684C
:100D5000D1E90121206800F02AFC2068816841F473
:100D600080418160E1E719E0CA684968206800F0C5
:100D7000D3FC5021206806E0CA684968206800F06A
:100D8000DCFC6021206800F01CFCCEE7CA684968E2
:100D9000206800F0C1FC40212068F4E72268014689
:100DA0001046F0E7704770B50446006801694FF0DF
:100DB0000005C943890715D4C168C943890711D4FF
:100DC000E91E0161012020772068806980072046A4
:100DD00002D0FFF7E7FF04E000F0CEF8204600F075
:100DE00060F9257720680169C943490717D4C168AC
:100DF000C943490713D46FF0040101610220207731
:100E00002068806910F4407F204602D0FFF7CAFFB7
:100E100004E000F0B1F8204600F043F9257720689F
:100E20000169C943090716D4C168C943090712D427
:100E30006FF008010161042020772068C0698007F5
:100E4000204602D0FFF7AEFF04E000F095F8204600
:100E500000F027F9257720680169C943C90617D42E
:100E6000C168C943C90613D46FF01001016108209D
:100E700020772068C06910F4407F204602D0FFF739
:100E800091FF04E000F078F8204600F00AF9257799
:100E900020680169C943C90708D1C168C943C907A6
:100EA00004D1891E0161204600F04AF920680169D9
:100EB000C943090609D4C168C943090605D46FF0BE
:100EC000800101612046FFF707FE20680169C943E0
:100ED000490609D4C168C943490605D46FF04001E9
:100EE0000161204600F02DF920680169C943890697
:100EF0000BD4C168C943890607D46FF02001016192
:100F00002046BDE87040FFF7E8BD70BD10B586B063
:100F100000210091019102910391134C0368134940
:100F200002221348A3420AD18B6943F004038B6168
:100F3000896901F0040104914FF470610BE00D4CDC
:100F4000A3420ED18B6943F004038B61896901F0E0
:100F5000040104918021CDE9001269460392FFF754
:100F6000ADF906B010BD0000002C01400010024099
:100F70000008014000040040704770B5044690F836
:100F80003C0000260D4601280FD0012084F83C00CB
:100F90006AB1042A1DD0082A2FD00C2A3FD001267E
:100FA000002084F83C00304670BD022070BD2068EF
:100FB00000F010FB2068816941F008018161206820
:100FC000816921F004018161206881692A691143E6
:100FD00011E0206800F026FB2068816941F400617F
:100FE00081612068816921F4806181612068816963
:100FF0002A6941EA02218161D2E7206800F03EFBC4
:101000002068C16941F00801C1612068C16921F00F
:101010000401C1612068C1692A69114311E0206897
:1010200000F058FB2068C16941F40061C16120688B
:10103000C16921F48061C1612068C1692A6941EAFE
:101040000221C161ACE710B5040003D094F83D0063
:1010500010B107E0012010BD002084F83C002046BC
:1010600000F01EF8022084F83D00211D206800F0E9
:101070005BFA012084F8460084F83E0084F83F00C3
:1010800084F8400084F8410084F8420084F843006A
:1010900084F8440084F8450084F83D00002010BD29
:1010A0007047704710B50446022249B104290ED09A
:1010B000082913D094F84100012816D0012010BD52
:1010C00094F83E000128F9D184F83E200FE094F80E
:1010D0003F000128F2D184F83F2008E094F8400056
:1010E0000128EBD184F8402001E084F8412001225E
:1010F000206800F04FFA0F492068884203D1426C03
:1011000042F4004242642068884208D0B0F1804F27
:1011100005D00949884202D00849884204D1816833
:1011200001F00701062903D0016841F001010160C7
:10113000002010BD002C01400004004000080040C9
:101140007047704770B5040004D094F84100002542
:1011500010B106E0012070BD84F84050204600F038
:1011600023F8242084F841002068C16821F400514C
:10117000C160204600F0F4FA2068016921F4904132
:1011800001612068416921F02A0141612068C1683C
:1011900041F40051C1606564202084F8410084F866
:1011A00042006563002070BD30B585B00024009416
:1011B00001940294039400681449884223D114488E
:1011C000C16941F40031C161C16901F40031049188
:1011D000816941F00401816180690E4D00F00400D5
:1011E000049004200090022001900320039069469F
:1011F0002846FFF763F80820CDE900046946284631
:101200000294FFF75BF805B030BD000000440040D9
:101210000010024000080140FEE70000094808B540
:10122000816941F020018161816901F02001009113
:10123000816941F004018161806900F0040000903F
:1012400008BD00000010024010B596B000240F94B5
:1012500010941194129413941C2168461494FEF770
:10126000B3FF202107A8FEF7AFFF374835490160DB
:1012700040F2CF21C0E9011440F2CF71C0E903145C
:101280008021C0E90541FFF787FC08B1FFF701F8AD
:101290004FF480500F900FA92B48FFF715FD08B1B0
:1012A000FEF7F7FF2848FFF7CEFE08B1FEF7F1FF83
:1012B000139413A924481494FFF73AFC08B1FEF7DD
:1012C000E8FF6020CDE9000402940394049405949F
:1012D000002269461C480694FFF74FFE08B1FEF74E
:1012E000D8FF32200190042269461748FFF745FED7
:1012F00008B1FEF7CEFF0822694613480194FFF7B4
:101300003CFE08B1FEF7C5FF0C2269460E48FFF708
:1013100034FE08B1FEF7BDFF0794089409944FF41A
:1013200000500A94CDE90B4007A907480E94FFF737
:10133000D5FB08B1FEF7ADFF0348FFF7E7FD16B098
:1013400010BD0000002C01401800002010B58EB028
:1013500000240794089409940A940B941C2168466D
:101360000C94FEF731FF1E481C49C0E900144FF6EB
:10137000FF71C0E9024104618461FFF70DFC08B10F
:10138000FEF787FF4FF48050079007A91448FFF736
:101390009BFC08B1FEF77DFF1148FFF754FE08B132
:1013A000FEF777FF0B940BA90D480C94FFF7C0FBD9
:1013B00008B1FEF76EFF6020CDE90004029404221C
:1013C000694607480494FFF7D8FD08B1FEF761FFAE
:1013D0000348FFF79BFD0EB010BD00000004004065
:1013E000600000200C4810B50A4901604FF4E1315B
:1013F0004160002181600C22C160C0E9041281615A
:10140000C161FFF79FFE002803D0BDE81040FEF742
:1014100040BF10BD00440040A8000020FEE7FEE7EA
:101420007047704710B50A4604461449104600F04C
:1014300095FA134900F074FB124900F02DFA124995
:10144000884200DB08461149114A31F8141014682B
:1014500039B1042909D008290BD000F041FB2064E0
:1014600010BD00F03DFB606310BD00F039FBA063D0
:1014700010BD00F035FBE06310BD000000003443F8
:10148000000048430000484200007A43000000206A
:1014900060000020FFF708B830B58FB028216846FB
:1014A000FEF792FE14210AA8FEF78EFE0121080421
:1014B000CDE900100024029402250491CDE90750E3
:1014C0004FF4E01009906846FFF762F908B172B670
:1014D000FEE70F20CDE90A054FF48060CDE90C400E
:1014E00002210AA80E94FFF777F8002801D072B6FF
:1014F000FEE70FB030BD70470148FFF754BC000055
:10150000180000200148FFF74EBC00001800002022
:101510000148FFF748BC0000180000200148FFF711
:1015200042BC000060000020F0B50268164B174C6A
:10153000174D4FF08047984205D0B84203D0A042E3
:1015400001D0A84203D122F070064A683243984283
:1015500005D0B84203D0A04201D0A84203D122F462
:101560004074CA6822434C6922F080022243026020
:101570008A68C2620A688262984201D1096901637D
:1015800001214161F0BD0000002C01400004004039
:101590000008004010B501F01F030121046A9940C2
:1015A0008C430462016A9A401143016210BD10B578
:1015B000846842EA032224F47F440A43224382607F
:1015C00010BD826822F070020A4342F00701816078
:1015D0007047000030B5036A026A22F0010202621D
:1015E0004268846924F073050C682C4323F00205DB
:1015F0008B682B430A4DA8420BD123F00805CB681A
:1016000022F440722B434D6923F0040315438A6989
:101610002A434260846149684163036230BD00002F
:10162000002C014030B5026A036A23F01003036204
:10163000436884690D6824F4E64444EA05248D680F
:1016400022F0200242EA05120B4DA8420ED1CD68CD
:1016500022F0800242EA05124D6923F4406343EA16
:1016600085038D6922F0400243EA8503436084616B
:1016700049688163026230BD002C014030B5036AC5
:10168000026A22F4807202624268C46923F4007321
:1016900024F073050C682C438D6843EA05230C4D38
:1016A000A8420ED1CD6823F4006343EA05234D69B7
:1016B00022F4405242EA05128D6923F4806342EA23
:1016C00005124260C4614968C163036230BD000015
:1016D000002C014030B5046A026A22F48052026292
:1016E0004268C3690D6823F4E64343EA05238D6825
:1016F00024F4005444EA0534064DA84204D14D694F
:1017000022F4804242EA85124260C3614968016462
:10171000046230BD002C014010B5036A046A24F055
:1017200001040462846924F0F00444EA021423F002
:101730000A020A438461026210BD10B5036A046A9A
:1017400024F010040462846923F0A00324F470449C
:1017500044EA023243EA01118261016210BD0000D5
:1017600070B5044600680169E26821F440511143F4
:1017700001612169A0680843616908432168CA685A
:1017800041F20C639A430243CA6020684169A2692E
:1017900021F44071114341611E492068884202D101
:1017A000FEF7C0FF01E0FEF7ADFF00EBC00101EB6B
:1017B0000012606864218000B2FBF0F3B3FBF1F328
:1017C0006FF018067343B2FBF0F5B2FBF0F605EBD1
:1017D0008305322303EB0515B5FBF1F5B6FBF1F6F6
:1017E00005F0F00505EB0615B2FBF0F6B2FBF0F0E4
:1017F000B0FBF1F06FF01802504306EB800003EBF2
:101800000010B0FBF1F0216800F00F002844886060
:1018100070BD000000380140FEE70907090E0028EE
:1018200004DB00F1E02080F80014704700F00F00A6
:1018300000F1E02080F8141D70470000FEF73CFE28
:10184000FFF72AFEFFF7EAFCFFF7FEFCFFF7CAFDF1
:10185000FFF77CFD0D48FFF70FFA0C210B48FFF74F
:1018600021FC04210948FFF71DFC08210748FFF768
:1018700019FC07490020FFF7D5FD40F2DC50FEF7C8
:101880000BFD04490020FFF7CDFDFEE71800002006
:101890000000A0410000344390EA010F48BF81F0EE
:1018A000004100F11082421A3CBF801A89184FEAA9
:1018B000D0524FF07F4C1CEA410FA2EBD15318BF1E
:1018C0009CEA026F00F03B804FF0004C4CEA002095
:1018D0004CEA012121FA03FC10EB0C0C1ED202F1A0
:1018E000FF325FEA1C2040EBC25038BF70471CF04B
:1018F0007F0F4FEA400C18BFBCF17F4F38BF7047D5
:10190000C3F12003994008BF20F00100BCF17F4FD4
:1019100038BF7047A0F1C04000F0C9B94FEA3C00A1
:10192000000A40EBC25028BF1CF0FF0F4FEA400CEA
:10193000E6D018BFBCF17F4F38BF7047EAE79CEA9A
:10194000026F05D010EA5C0F08BF00F0004070473E
:1019500010B500F066F900BF64FBBE3E4FF47F0C8B
:101960001CEAD0121EBF1CEAD11392EA0C0F93EAB4
:101970000C0F00F0858090EA010F48BF42F480729E
:1019800040F4000C41F400002CF07F4120F07F4037
:1019900000B58142A2EB03020FF2081CACEB504EE3
:1019A000C0F100009EF800E04FEA4E0E00FB0EFC76
:1019B00038BF49004FEA2C1C02F5FA020CFB0EF36B
:1019C0004FEACE1E4FEA112C4FEAC1210EEB635EA7
:1019D00042EB22420EFB0CFC4FEA1C5300FB0311AE
:1019E0004FEA112C4FEA01310EFB0CFC4FEADC4CA4
:1019F00000FB0C11C14228BF09184CEB03335DF802
:101A000004EB10EB410143EBC250B2F57C0F38BF41
:101A1000704729D512F0F00F1CBF00F1C04000F054
:101A200000407047008182838485868788898B8CFB
:101A30008D8E8F919293959697999A9C9D9FA0A237
:101A4000A3A5A7A8AAACAEB0B2B3B5B7B9BCBEC087
:101A5000C2C5C7C9CCCED1D4D7D9DCDFE2E6E9EC28
:101A6000F0F3F7FAFE0000004FEA400C0CF1807C26
:101A7000BCF17E4F28BF7047B0F1C04000F017B9ED
:101A800090EA010F0CEAD11348BF42F4807262451C
:101A900038BF634507D213F47F0F16D080EA0100E8
:101AA00000F00040704710B500F0BBF8097EFC3E26
:101AB00000F005B880EA010000F00040704780EABD
:101AC000010000F0004000F0F2B812F47F0F04BFF4
:101AD0000248704780EA010000F0E9B80000C07FCA
:101AE000C10DD1F19E0206DB4FEA002343F0004313
:101AF00023FA02F07047004207D54FEA4001B1F1E6
:101B0000FE4F02D24FF00000704710B500F089F888
:101B100049922480002070476FEA2000704700003F
:101B20004FF47F0C1CEAD0121EBF1CEAD11392EABC
:101B30000C0F93EA0C0F00F0478090EA010F48BFAA
:101B400042F480724FF0004C4CEA00204CEA012134
:101B500002EB0302A0FB0113A2F50002002918BF4B
:101B600043F001035B0028BF4FEA330342EB2242FC
:101B70005FEA132C4CEBC2502EBFBCEB436FB2F5A7
:101B80007C0F70474FEA036CBCF1004F08BF20F098
:101B90000100B2F57C0F38BF70470BD582F0FF0211
:101BA00012F5803FC8BF704700F1C040D8BF00F0B9
:101BB0000040704700F5000C5FEA4C0C48BF7047CE
:101BC000B0F1C04000F073B890EA010F0CEAD113F5
:101BD00048BF42F48072624538BF634504D280EA50
:101BE000010000F00040704710B500F01AF800BF87
:101BF0008900013E00F007B800F009B85FEA410C27
:101C00005FEA1C6C08D080EA010000F050B85FEA7F
:101C1000400C5FEA1C6CF6D14FF00040A0F580004C
:101C200070470EF1020E2EF0030E5EF8044B2442B4
:101C300004D44FEA4102B2F17F4F11D84FEA40037A
:101C4000B3F17F4F0CD80ED14FEAD07CB2F17F4F69
:101C50000CEB4C0C0CF1020C08BF4CEBD17C04E0FB
:101C60004FF0080C01E04FEAD17C0CEB4C0324FA56
:101C700003F404F00704B4F1040C06D20EEB840C58
:101C8000BDE810404CF0010C6047DFE80CF007089D
:101C900002024FF00040A0F5800010BD084642004F
:101CA00018BFD2F1807288BF00F0004010BDFF2144
:101CB00041EAD050C005704790EA010F48BF81F05B
:101CC00000413FF5F0AD421A04D882F00042A0EB8B
:101CD000020011444FEAD0524FF07F4C1CEA410FF2
:101CE000A2EBD15318BF9CEA026F4AD04FF0004CD0
:101CF0004CEA00204CEA012121FA03FCB0EB0C0C69
:101D00000FD412F0FE0F36D05FEA4C001DD5001242
:101D100040EBC25038BF70471CF03F0F18BF7047F0
:101D20000BE0A2F101025FEA1C2040EBC25038BF79
:101D300070471CF07F0F18BF7047C3F12003994014
:101D400014BF401E20F00100704780084FEA1223A4
:101D500008BF7047B0FA80FCA2EB0C02CCF1280C53
:101D600060FA0CF093EA122F04BF00EBC2507047E8
:101D70004FEAC3707047130A5FEADC1008BF704770
:101D8000F6E79CEA026F04D010EA5C0F08BF00205F
:101D9000704710B5FFF745FF40DFF63E81F0004089
:101DA0007047010202030405060708090A0B0C0D1F
:101DB0000E0F1010000000000000000001020304DC
:101DC000060708090000000001020304EC1D0008DA
:101DD000000000201800000028010008041E000870
:101DE0001800002038070000440100080400080023
:101DF0000C000000010000001000000000000000C6
:041E00000024F400C6
:04000005080000ED02
:00000001FF
