:020000040800F2
:10000000780A00209101000873200008271C0008CE
:10001000712000088D020008F12600080000000091
:100020000000000000000000000000001321000894
:100030009D02000800000000112100088521000831
:10004000AB010008AB010008AB010008AB010008E0
:10005000AB010008AB010008AB010008AB010008D0
:10006000AB010008AB010008AB010008AB010008C0
:10007000AB010008AB010008AB01000891020008C9
:10008000AB010008AB010008AB010008AB010008A0
:10009000AB010008AB010008AB010008AB01000890
:1000A000AB010008AB010008AB010008AB01000880
:1000B000E9210008F521000801220008AB01000831
:1000C000AB010008AB010008AB010008AB01000860
:1000D000AB010008E5260008AB010008AB010008F1
:1000E000AB010008AB010008AB01000800F002F80A
:1000F00000F03EF80AA090E8000C82448344AAF184
:100100000107DA4501D100F033F8AFF2090EBAE881
:100110000F0013F0010F18BFFB1A43F0010318473B
:100120004834000068340000103A24BF78C878C111
:10013000FAD8520724BF30C830C144BF04680C60ED
:10014000704700000023002400250026103A28BF35
:1001500078C1FBD8520728BF30C148BF0B60704739
:100160001FB5AFF30080AFF300801FBD10B510BD09
:1001700000F05AF81146FFF7F3FF02F033FB00F0EE
:1001800078F803B4FFF7F2FF03BC02F0C2FA0000F4
:100190000948804709480047FEE7FEE7FEE7FEE71B
:1001A000FEE7FEE7FEE7FEE7FEE7FEE70448054957
:1001B000054A064B70470000E7210008ED000008E3
:1001C00078040020780A00207806002078060020B5
:1001D00070474FF0000200B513469446964620390A
:1001E00022BFA0E80C50A0E80C50B1F12001BFF4F0
:1001F000F7AF090728BFA0E80C5048BF0CC05DF856
:1002000004EB890028BF40F8042B08BF704748BFA3
:1002100020F8022B11F0804F18BF00F8012B704717
:100220007047704770477047754600F02BF8AE4630
:1002300005006946534620F00700854618B020B5F2
:10024000FFF7B4FFBDE820404FF000064FF0000775
:100250004FF000084FF0000B21F00701AC46ACE86E
:10026000C009ACE8C009ACE8C009ACE8C0098D46DB
:10027000704710B50446AFF300802046BDE810403B
:10028000FFF77FBF0048704718040020FEE700001A
:10029000014800F075B8000048020020704772B6AF
:1002A000FEE710B590F821100022022905D00421A4
:1002B000816380F82020012010BD01680B6823F0C5
:1002C0000E030B6001680B6823F001030B6090F8CC
:1002D0004030C46B012101FA03F3636080F8211000
:1002E00080F82020104610BD10B590F82110002491
:1002F000022903D00421816301243DE001680A68DA
:1003000022F00E020A6001680A6822F001020A6007
:100310001A4A0168914201D1012121E0174A1432A1
:10032000914201D110211BE0144A2832914201D19F
:10033000891515E0114A3C32914201D189140FE030
:100340000E4A5032914202D14FF4803108E00B4AFC
:100350006432914202D14FF4801101E04FF080717C
:10036000064A083A5160012180F82110002180F8E6
:100370002010416B01B18847204610BD08000240A3
:100380002DE9F05FC16B0C6801680B68D0F840C0C4
:10039000042202FA0CF2494DDFF824A1494E4A4FDB
:1003A000DFF828B1DFF828E122422CD05A072AD5FD
:1003B0000A68920603D40A6822F004020A600168FF
:1003C000A94201D1042219E0514501D1402215E092
:1003D000B14202D14FF4806210E0B94202D14FF431
:1003E00080420BE0594502D14FF4802206E071456E
:1003F00002D14FF4800201E04FF080622F490839AA
:100400004A60C16A3BE04FF0020808FA0CF818EAAB
:10041000040F4FF000094FF0010235D05FEA8378F6
:1004200032D50B689B0605D40B6823F00A030B60DA
:1004300080F821200168A94201D1022219E051452A
:1004400001D1202215E0B14202D14FF4007210E038
:10045000B94202D14FF400520BE0594502D14FF49A
:10046000003206E0714502D14FF4001201E04FF076
:100470000072124908394A6080F82090816A002988
:100480001AD0BDE8F05F0847082505FA0CF52542AB
:1004900012D01B0710D50B6823F00E030B6090F8E9
:1004A0004010C36B02FA01F15960826380F8212089
:1004B00080F82090016BE2E7BDE8F09F0800024061
:1004C0001C0002403000024044000240580002403C
:1004D0006C00024030B528B308C8134914221944EF
:1004E000B1FBF2F18900C1631049816302214177B8
:1004F0001A6843F6F0718A43D0E900142143D0E929
:1005000002452C4321430469214344692143846902
:100510002143114319600021416301224277017791
:10052000084630BD012030BDF8FFFDBF000002408D
:1005300070B5044600F004F90546601C02D004487A
:100540000078044400F0FCF8401BA042FAD370BDD0
:10055000B00000202DE9F84FDFF8B8910024A9F190
:10056000040B23460F2709F1040AABF1040EC9E07E
:100570000125A5402A40AA427DD1674ED1F804C08A
:10058000ACEB0608B44532D014DCBCF1030F3AD012
:1005900009DCBCF1000F2AD0BCF1010F1CD0BCF16A
:1005A000020F31D11DE0BCF1110F17D0BCF1120FB9
:1005B0002AD119E0B8F5881F19D006DCB8F5803FBC
:1005C00015D0B8F5801F1FD111E0B8F5001F0ED06F
:1005D000B8F5041F18D10AE0CB6815E0CB681B1DE5
:1005E00012E0CB6808330FE0CB680C330CE08B686B
:1005F0002BB1012B4FF0080303D0456104E0042325
:1006000002E0056100E00023FF2A01D8064601E070
:1006100000F104064FEA840501D9A5F12005D6F8BA
:10062000008007FA05FC28EA0C0803FA05F548EAF9
:100630000508C6F800804D68ED0062D5374DAE69FB
:1006400046F00106AE61AD6924F0030605F0010530
:100650000095334D06EB050CDCF80850A607360F65
:1006600007FA06F825EA0805DFF8B880404503D107
:100670004FF0000817E044E0DFF8AC80404502D1BD
:100680004FF001080FE0DFF8A480404502D14FF0A1
:10069000020808E0DFF89880404502D14FF00308D7
:1006A00001E04FF0040808FA06F848EA0508CCF81B
:1006B00008804D68D9F80060ED024D4601D516431B
:1006C00000E096432E604D68DAF80060AD025546B2
:1006D00001D5164300E096432E604D68DBF80060BC
:1006E000AD035D4601D5164300E096432E604D688C
:1006F000DEF80060ED03754601D5164300E0964331
:100700002E60641C0D682A46E5407FF431AFBDE8D9
:10071000F88F000008040140000011100010024092
:100720000000014000080140000C014000100140A1
:10073000001401400AB1016170470904FBE70000A1
:100740000148806870470000B000002002488168BE
:100750000278114481607047B0000020074810B54E
:10076000016841F010010160032000F075F80F20CE
:1007700000F006F800F024F8002010BD0020024030
:1007800070B50D4D04464FF47A712878B1FBF0F046
:100790000A490968B1FBF0F000F0DCFA48B9102C06
:1007A00007D200222146501E00F036F800206C606F
:1007B00070BD012070BD0000B0000020BC00002012
:1007C0000C4808B5816941F001018161816901F03E
:1007D00001010091C16941F08051C161C06900F01F
:1007E000805000900448416821F0E06141F00071C0
:1007F000416008BD0010024000000140002809DBF4
:1008000000F01F02012191404009800000F1E0202A
:10081000C0F8001170470000F0B40E4B1B680C4686
:10082000C3F30223C3F10705042D00D90425191DC4
:10083000072901D2002300E0DB1E012606FA05F19C
:10084000491E214099409E40761E16403143F0BC1F
:1008500001F04FBF0CED00E0064900F00702086808
:100860004FF6FF03184040EA0220034A1043086095
:10087000704700000CED00E00000FA052DE9F0479C
:100880000F46050061D0434E306800F00700B842C3
:1008900009D2306820F0070038433060306800F03B
:1008A0000700B84251D128683B4C810712D5400758
:1008B00003D5606840F4E06060602878000703D5E5
:1008C000606840F4605060606068A96820F0F000E3
:1008D000084360602878C00728D06868012810D0D5
:1008E0002168022810D0890700292EDA616821F0DA
:1008F000030101436160FFF723FF804641F288391D
:100900000DE021688903EFE78901EDE7FFF718FFA4
:10091000A0EB0801494502D90320BDE8F0876068D3
:10092000696800F00C00B0EB810FEFD1306800F087
:100930000700B8420BD9306820F007003843306018
:10094000306800F00700B84201D00120E5E72878C0
:10095000400705D56068E96820F4E06008436060FE
:100960002878000706D56068296920F4605040EABD
:10097000C100606000F038F86168084AC1F30311F3
:10098000515CC8400649086006480068FFF7F8FE59
:100990000020C2E70020024000100240503500084D
:1009A000BC000020B40000200448054900684968E4
:1009B000044AC1F30221515CC8407047BC000020CA
:1009C0000010024060350008044805490068496885
:1009D000044AC1F3C221515CC8407047BC000020EA
:1009E00000100240603500080E4A51680E4801F0C0
:1009F0000C03042B11D0082B0FD10C48C1F38343F7
:100A0000C903C05C0AD55168084AC1F34041921E2F
:100A1000515C054A5043B0FBF1F07047044948432C
:100A2000704700000010024000127A0040350008B4
:100A300000093D002DE9F84F040070D02078C04D2A
:100A4000C00749D06868C0F38100012807D06868F2
:100A5000C0F38100022809D16868C00306D5286860
:100A6000800339D560680028E7D035E06068B0F5CC
:100A7000803F0BD010B1B0F5A02F11D0286820F422
:100A800080302860286820F4802002E0286840F444
:100A900080302860606890B1FFF752FE06460AE099
:100AA000286840F480202860F0E700BFFFF748FE88
:100AB000801B642873D828688003F7D50CE0FFF703
:100AC0003FFE064605E000BFFFF73AFE801B6428A4
:100AD000F0D828688003F7D420789A4E80074FF02A
:100AE00001094FF0000839D5686810F00C0F07D0E5
:100AF0006868C0F38100022809D16868C00306D481
:100B00002868800714D52069012808D110E02069E1
:100B1000B0B1C6F80090FFF713FE074605E00AE102
:100B2000FFF70EFEC01B0228C4D828688007F7D53F
:100B30002868616920F0F80040EAC10028600DE0F3
:100B4000C6F80080FFF7FCFD074604E0FFF7F8FD5C
:100B5000C01B022823D828688007F7D42078000714
:100B60002CD57948A169D9B1C0F80090FFF7E8FD0C
:100B7000074604E0FFF7E4FDC01B02280FD8686AAF
:100B80008007F7D571484FF4FA510068B0FBF1F0D7
:100B9000009000BF0098411E0091FAD20EE080E064
:100BA000C0F80080FFF7CCFD074604E0FFF7C8FD62
:100BB000C01B022875D8686A8007F7D420784007E0
:100BC00060D5E8690027C00008D4E86940F080508B
:100BD000E861E869012700F0805000905C480168F6
:100BE000C90513D40168834641F480710160FFF7A1
:100BF000A7FD824606E000BFFFF7A2FDA0EB0A00BA
:100C000064284ED8DBF80000C005F5D5E06801285F
:100C10000AD008B1052813D0286A20F00100286204
:100C2000286A20F0040002E0286A40F001002862EF
:100C3000E06841F2883B98B1FFF782FD82460BE005
:100C4000286A40F004002862EEE700BFFFF778FD55
:100C5000A0EB0A0159455AD8286A8007F6D50CE05E
:100C6000FFF76EFD824605E0FFF76AFDA0EB0A0183
:100C700059454CD8286A8007F6D41FB1E86920F09E
:100C80008050E861E06988B36968C1F38101022995
:100C900044D00228C6F8608004D0FFF751FD044616
:100CA00038E034E0FFF74CFD074604E0FFF748FD6D
:100CB000C01B02282BD828688001F7D4206AB0F521
:100CC000803F05D16868A16820F40030084368605F
:100CD000D4E908010843696821F474110843686085
:100CE000C6F86090FFF72CFD044606E025E000BF43
:100CF000FFF726FD001B022809D828688001F7D5D8
:100D00001BE000BFFFF71CFD001B022802D90320D7
:100D1000BDE8F88F28688001F4D40EE00128F7D0F0
:100D20006868226A00F48031914204D1616A00F45B
:100D30007010884201D00120EAE70020E8E70000B7
:100D4000001002400000424280044242BC000020E9
:100D50000070004010B5401EB0F1807F01D301202B
:100D600010BD4FF0E02460610F21601701F0C1FC5D
:100D70000020A06107202061002010BD704770474F
:100D800010B590F83C20012A22D0012280F83C20A6
:100D9000CA688C6822F4407222434C6822F4806254
:100DA00022430C6822F4006222430C6922F4805230
:100DB00022434C6922F400522243C969002322F4E1
:100DC00080420A4301684A6480F83C30002010BD2C
:100DD000022010BD70B590F83C20012A26D00124D5
:100DE00080F83C40022280F83D2003685A689D68E4
:100DF00022F070060A6832435A600D4B02689A422C
:100E000008D0B2F1804F05D00A4B9A4202D00A4B6B
:100E10009A4204D1496825F080031943916080F813
:100E20003D40002180F83C10084670BD022070BD96
:100E3000002C0140000400400008004010B50400F0
:100E400003D094F83D0010B107E0012010BD002050
:100E500084F83C00204600F01FF8022084F83D0092
:100E6000211D206801F0D2F9012084F8460084F8A1
:100E70003E0084F83F0084F8400084F8410084F884
:100E8000420084F8430084F8440084F8450084F864
:100E90003D00002010BD000070B586B00024009415
:100EA000019402940394484A01684848914209D148
:100EB000816941F400618161806900F400600490FF
:100EC00006B070BD0225424A424EB1F1804F32D089
:100ED000414B994266D1C16941F00201C161C169CA
:100EE00001F002010491816941F00401816181698D
:100EF00001F004010491816941F008018161806978
:100F0000694600F0080004904020009002951046C9
:100F1000FFF720FB03208DE8310069463046FFF7DC
:100F200019FB002211461D20FFF776FC5FF01D0023
:100F3000FFF764FCC4E7C16941F00101C161C16907
:100F400001F001010491816941F00401816181692D
:100F500001F004010491816941F008018161806917
:100F6000694600F0080004900120009002951046A8
:100F7000FFF7F0FA4FF480608DE8310069463046A3
:100F8000FFF7E8FA1548416821F4407141F0E0614B
:100F900041F400714160002211461C20FFF73CFC27
:100FA0001C20C5E70E4A91428AD1C16941F0040173
:100FB000C161C069002200F00400049011461E20A7
:100FC000FFF72AFC1E20B3E7002C0140001002406E
:100FD00000080140000C01400004004000000140F6
:100FE0000008004090F83D10012901D00120704711
:100FF000022180F83D1000680B49884208D0B0F10A
:10100000804F05D00949884202D00949884204D15D
:10101000816801F00701062903D0016841F0010150
:101020000160002070470000002C014000040040D7
:101030000008004090F83D10012901D001207047C0
:10104000022180F83D100168CA6842F00102CA60BE
:1010500000680B49884208D0B0F1804F05D009499B
:10106000884202D00849884204D1816801F0070112
:10107000062903D0016841F001010160002070479A
:10108000002C0140000400400008004070B50446F8
:1010900090F83C000025012817D0012684F83C6018
:1010A000022084F83D002068826822F0770222F452
:1010B0007F4282600868502838D00DDC20284FD04D
:1010C00005DC90B3102811D14AE0022070BD302811
:1010D00046D040280AD13BE060282FD070280DD0A0
:1010E000B0F5805F03D0B0F5005F12D0012584F821
:1010F0003D60002084F83C00284670BDCB68D1E9F3
:101100000121206801F0C5F82068816841F077016D
:1011100009E0CB68D1E90121206801F0BAF8206824
:10112000816841F480418160E1E719E0CA6849685B
:10113000206801F063F95021206806E0CA68496818
:10114000206801F099F96021206801F0ACF8CEE741
:10115000CA684968206801F051F940212068F4E725
:10116000226801461046F0E730B503684FF080442E
:1011700001210E4AA34209D1037F012B03D1118023
:101180000568A54202D1042B0FD15180084B046899
:101190009C4203D1047F012C00D1918004689C42C1
:1011A00003D1007F042800D1D18030BDD2000020BF
:1011B000000400402DE9F041054690F83C0000266F
:1011C0000C46012810D0012085F83C0072B1042A99
:1011D0001CD0082A2CD00C2A50D00126002085F8DB
:1011E0003C003046BDE8F0810220FBE7D4E9001264
:1011F000E368286801F014F92868816921F00C017E
:10120000816128688169A26811430FE0D4E9001266
:10121000E368286801F042F92868816921F4406197
:10122000816128688169A26841EA02218161D5E76C
:101230002868D4E9002C277B036A016A21F48071B5
:101240000162C16923F4007321F0030141EA0C013A
:1012500021F0F00C39074FF400774CEA116107EAEE
:1012600002221A43C16102622868C16921F00C019F
:10127000C1612868C169A26811432BE02868D4E9DC
:101280000021E768036AD0F820C02CF4805CC0F825
:1012900020C0D0F81CC023F400532CF4407C4CEA4E
:1012A000012121F4704C4FF6FF7101EA07314FF430
:1012B000005741EA0C0107EA02321A43C161026297
:1012C0002868C16921F44061C1612868C169A268C8
:1012D00041EA0221C16181E710B5040003D094F80E
:1012E0003D0010B107E0012010BD002084F83C0053
:1012F000204600F01EF8022084F83D00211D2068E1
:1013000000F084FF012084F8460084F83E0084F851
:101310003F0084F8400084F8410084F8420084F8DB
:10132000430084F8440084F8450084F83D00002020
:1013300010BD704730B50446002551B104290DD0C9
:10134000082910D094F8410094F84520012811D1C3
:101350000EE094F83E0094F84220F7E794F83F003E
:1013600094F84320F2E794F8400094F84420EDE725
:10137000012A01D0012030BD022059B1042912D028
:10138000082919D084F8410084F845000C2938D088
:10139000012534E084F83E0084F842002068C268E9
:1013A00042F0020210E084F83F0084F84300206815
:1013B000C26842F0040207E084F8400084F8440068
:1013C0002068C26842F00802C2600122206800F072
:1013D00053FF0E492068884208D0B0F1804F05D0F5
:1013E0000B49884202D00B49884204D1816801F040
:1013F0000701062903D0016841F001010160284678
:1014000030BD2068C26842F01002DDE7002C0140C8
:10141000000400400008004070B5044600680169FF
:101420004FF00005C943890715D4C168C94389072E
:1014300011D4E91E016101202077206880698007AE
:10144000204602D0FFF790FE04E000F0FFF82046AF
:1014500000F091F9257720680169C943490717D43D
:10146000C168C943490713D46FF004010161022028
:1014700020772068806910F4407F204602D0FFF773
:1014800073FE04E000F0E2F8204600F074F92577DE
:1014900020680169C943090716D4C168C94309070F
:1014A00012D46FF008010161042020772068C06920
:1014B0008007204602D0FFF757FE04E000F0C6F890
:1014C000204600F058F9257720680169C943C9060C
:1014D00017D4C168C943C90613D46FF01001016164
:1014E000082020772068C06910F4407F204602D091
:1014F000FFF73AFE04E000F0A9F8204600F03BF9BF
:10150000257720680169C943C90708D1C168C94363
:10151000C90704D1891E0161204600F07BF92068CB
:101520000169C943090609D4C168C943090605D43C
:101530006FF0800101612046FFF720FC20680169FF
:10154000C943490609D4C168C943490605D46FF0A7
:1015500040010161204600F06FF920680169C9432C
:1015600089060BD4C168C943890607D46FF02001EE
:1015700001612046BDE87040FFF701BC70BD00006E
:1015800010B586B000210091019102910391294B81
:1015900002682949022429489A420AD18A6942F0FC
:1015A00004028A61896901F0040104914FF47061B9
:1015B0000EE0B2F1804F13D0214B9A420ED18A69CE
:1015C00042F004028A61896901F0040104918021DA
:1015D000CDE9001469460394FEF7BCFF06B010BDC8
:1015E0008A6942F004028A618A6902F00402049264
:1015F0008A6942F008028A618969009401F0080151
:101600000194CDE903416946FEF7A4FF4FF4006061
:10161000CDE9000469460B480394FEF79BFF0A4896
:10162000416821F4407141F0E06141F40071416092
:10163000D4E70000002C01400010024000080140E7
:1016400000040040000C014000000140704770B5EC
:10165000044690F83C0000260D4601280FD00120DA
:1016600084F83C006AB1042A1DD0082A2FD00C2A25
:101670003FD00126002084F83C00304670BD022097
:1016800070BD206800F018FE2068816941F00801F3
:1016900081612068816921F004018161206881698C
:1016A0002A69114311E0206800F02EFE206881694C
:1016B00041F4006181612068816921F48061816168
:1016C000206881692A6941EA02218161D2E72068A4
:1016D00000F046FE2068C16941F00801C161206840
:1016E000C16921F00401C1612068C1692A691143FF
:1016F00011E0206800F060FE2068C16941F40061DB
:10170000C1612068C16921F48061C1612068C1693B
:101710002A6941EA0221C161ACE710B5040003D097
:1017200094F83D0010B107E0012010BD002084F8BE
:101730003C00204600F01EF8022084F83D00211DE8
:10174000206800F063FD012084F8460084F83E0024
:1017500084F83F0084F8400084F8410084F8420097
:1017600084F8430084F8440084F8450084F83D0080
:10177000002010BD7047704710B50446022249B1E1
:1017800004290ED0082913D094F84100012816D05E
:10179000012010BD94F83E000128F9D184F83E20C4
:1017A0000FE094F83F000128F2D184F83F2008E0D0
:1017B00094F840000128EBD184F8402001E084F83F
:1017C00041200122206800F057FD0F49206888421F
:1017D00003D1426C42F4004242642068884208D03F
:1017E000B0F1804F05D00949884202D008498842AB
:1017F00004D1816801F00701062903D0016841F096
:1018000001010160002010BD002C014000040040D7
:101810000008004000680549884205D104490120BC
:1018200008810448FFF706BC70470000000800402C
:10183000D2000020B80100207047704770470000B8
:10184000F8B5016804460868CA684B6910F00F0FC4
:101850004FF0000559D003F0010602F490773743AA
:1018600065D0C10705D0D10503D5616C41F00101F8
:101870006164410705D5D90703D0616C41F00201CD
:101880006164810705D5D90703D0616C41F004017B
:101890006164010707D502F02001314303D0616C78
:1018A00041F008016164616C00293AD0800604D5DA
:1018B000900602D5204600F03BFE20684069616C2E
:1018C000C0F38010090700D460B3204600F009FE81
:1018D00020684069400621D52068143050E8001F78
:1018E00021F0400140E80012002AF5D1E06BA8B1D8
:1018F0006D494163E06BFEF7F7FC002811D0E06B07
:10190000416B01B0BDE8F040084783060FD5930650
:101910000DD52046BDE8F84000F00ABE2046FFF78E
:101920008DFFF8BD2046FFF789FF6564F8BD266B83
:101930002023012E7CD1C6067AD5D60678D5086834
:101940004868009048694FF00206400640D5E16BB8
:10195000086840680004000CE8D0A28D8242E5D9F6
:10196000E085886920282DD020680C3050E8001FC1
:1019700021F4807140E80012002AF5D1206814306B
:1019800050E8001F21F0010140E80012002AF5D1C3
:101990002068143050E8001F21F0400140E8001298
:1019A000002AF5D184F84230256320680C3050E8D5
:1019B000001F21F0100140E80012002AF5D1E06B71
:1019C000FEF76FFC6663A08DE18D401A81B22AE0BC
:1019D000A08DE18D401A81B2E08D0028A6D00029AB
:1019E000A4D022680C3252E8000F20F4907042E834
:1019F0000007002FF5D12068143050E8002F22F0A6
:101A0000010240E80027002FF5D184F84230256319
:101A100020680C3050E8002F22F0100240E800232C
:101A2000002BF5D166632046FFF707FFF8BDFFE7FF
:101A300005062BD5150629D594F841002128F5D1A6
:101A4000A068B0F5805F01D12069B0B1206A411C67
:101A50002162216800784860E08C401E0004000C80
:101A6000E084E3D12068C16821F08001C160206872
:101A7000C16841F04001C160D8E7206A0088C0F326
:101A800008004860206A801C2062E5E74006CDD54A
:101A90005006CBD5CA68204622F04002CA6084F8BE
:101AA000413000F0BFF8C1E7D324000870B504004E
:101AB00004D094F84100002510B106E0012070BD6B
:101AC00084F84050204600F023F8242084F8410098
:101AD0002068C16821F40051C160204600F08AFDF1
:101AE0002068016921F4904101612068416921F079
:101AF0002A0141612068C16841F40051C1606564F8
:101B0000202084F8410084F842006563002070BD05
:101B1000F0B585B000250646009501950295039520
:101B200000682549884245D12448816941F48041B3
:101B30008161816901F480410491816941F008016A
:101B4000816180691E4C00F00800049040200090E4
:101B5000022001900320039069462046FEF7FAFC1C
:101B60008027CDE90075694620460295FEF7F2FC14
:101B70001448416841F0E06141F004014160134CB8
:101B80001148C4E90005C4E9025720202561C4E9D1
:101B900005502046E561FEF79DFC08B1FEF77FFB8E
:101BA000F4630022114625206662FEF735FE2520EB
:101BB000FEF724FE05B0F0BD0038014000100240E1
:101BC000000C014000000140580002404802002083
:101BD00090F84230202B01D00220704721B11AB179
:101BE0000023036300F062BD0120704700680A49CA
:101BF00088420FD109480178FF290BD1407CFE288B
:101C000008D10649012012311222488112390448B4
:101C1000FFF7DEBF7047000000380140C000002021
:101C2000000200207047FEE7094808B5416941F00D
:101C3000010141614069002200F00100009011465D
:101C40000F20FEF7E9FDBDE808400F20FEF7D6BDE6
:101C5000001002402DE9F04186B000200090019074
:101C6000029003902348816941F0200181618169DC
:101C700001F020010491816941F0040181618169D1
:101C800001F004010491816941F0080181618069DA
:101C9000194F00F00800049000223C213846FEF75E
:101CA00049FDDFF858804FF4704600223146404627
:101CB000FEF740FD01243C20CDE9000402256946E1
:101CC0003846CDE90245FEF745FCCDE9006469469A
:101CD0004046CDE90245FEF73DFC3820009008481B
:101CE000CDE9010469464046FEF734FC06B0BDE884
:101CF000F08100000010024000080140000C01408B
:101D00000000111010B596B000240F941094119497
:101D1000129413941C2168461494FEF75AFA202159
:101D200007A8FEF756FA34483249C0E9001440F2D9
:101D3000E731C0E90241046144618461FFF77EF844
:101D400008B1FEF7ACFA4FF480500F900FA92A4863
:101D5000FFF79CF908B1FEF7A2FA2748FFF7DDFC70
:101D600008B1FEF79CFA139413A923481494FFF7C3
:101D700031F808B1FEF793FA6020CDE9000402942F
:101D8000039404940594002269461B480694FFF7C7
:101D90005EFC08B1FEF783FA042269461648FFF795
:101DA00056FC08B1FEF77BFA082269461248FFF795
:101DB0004EFC08B1FEF773FA0C2269460E48FFF795
:101DC00046FC08B1FEF76BFA0794089409944FF4A7
:101DD00000500A94CDE90B4007A907480E94FEF77E
:101DE000CFFF08B1FEF75BFA0348FFF7C9FB16B057
:101DF00010BD0000002C0140E000002010B592B0A2
:101E000000240B940C940D940E940F94109407944A
:101E1000089409941C2168460A94FEF7DAF93048C0
:101E20004FF08041016040F2CF21C0E9011440F23F
:101E3000CF71C0E9031480218161FEF7FFFF08B173
:101E4000FEF72DFA4FF480500B900BA92448FFF7B2
:101E50001DF908B1FEF723FA2148FFF73DFA08B152
:101E6000FEF71DFA1E48FFF758FC08B1FEF717FAF7
:101E70000F940FA91A481094FEF7ACFF08B1FEF7B3
:101E80000EFA0120CDE907400994002207A9144861
:101E90000A94FFF78FF908B1FEF701FA6020CDE947
:101EA00000040294042269460D480494FFF7CFFB16
:101EB00008B1FEF7F4F9082207A90948FFF77AF9F3
:101EC00008B1FEF7ECF90C2269460548FFF7BFFBA5
:101ED00008B1FEF7E4F90248FFF752FB12B010BD5B
:101EE0002801002010B592B000240B940C940D949E
:101EF0000F9410940E940094019402941C2104A851
:101F00000394FEF766F931482F49016040F2CF2172
:101F1000C0E9011440F2CF71C0E90314802181614E
:101F2000FEF78CFF08B1FEF7BAF94FF480500B9022
:101F30000BA92648FFF7AAF808B1FEF7B0F9234825
:101F4000FFF7CAF908B1FEF7AAF92048FFF7E5FB49
:101F500008B1FEF7A4F90F940FA91C481094FEF7DE
:101F600039FF08B1FEF79BF90120CDE9004002944A
:101F70000022694615480394FFF71CF908B1FEF7E3
:101F80008EF96020CDE904040694042204A90F48C8
:101F90000894FFF75CFB08B1FEF781F90822694657
:101FA0000A48FFF707F908B1FEF779F90C226946EC
:101FB0000648FFF7FFF808B1FEF771F90348FFF78D
:101FC000DFFA12B010BD00000004004070010020D4
:101FD00010B586B00024174800940194029403942D
:101FE00004941349059401604721C0E9011442F2A9
:101FF0001071C0E903148461FEF720FF08B1FEF7F9
:102000004EF94FF48050009069460A48FFF73EF8B9
:1020100008B1FEF744F9049404A906480594FEF7B4
:10202000D9FE002801D0FEF73AF906B010BD000035
:1020300000080040B80100200C4810B50A490160B2
:102040004FF4E1314160002181600C22C160C0E9A0
:1020500004128161C161FFF729FD002803D0BDE8AA
:102060001040FEF71CB910BD0038014000020020EE
:10207000FEE7FEE700214FF07C52C0E9012101613B
:1020800041618161024AC1610260C1607047000024
:10209000000020412DE9F0410446006901F06AF991
:1020A0006061A66905460121304601F00AFA294619
:1020B00001F056F9E16900F025FFA16801F084F80C
:1020C00007462946606801F07FF880463146284679
:1020D00001F050F9216801F077F8414600F012FF55
:1020E000394600F00FFFE16800F00CFF0649E060A0
:1020F000884202DC0549884200D9E160C4E90656FD
:10210000E068BDE8F081000000006144000061C4A7
:102110007047704710B50A4604461549104600F04E
:1021200059FF144901F050F8134900F0EBFE134930
:10213000884200DB0846124A1149083252F824202E
:1021400031F81410146839B1042909D008290BD0CA
:1021500001F002F8206410BD00F0FEFF606310BDC6
:1021600000F0FAFFA06310BD00F0F6FFE06310BDC1
:1021700000003443000048430000484200007A4316
:102180009C000020FEF7E2BA30B58FB028216846E7
:10219000FEF71FF814210AA8FEF71BF80121080416
:1021A000CDE900100024029402250491CDE90750E6
:1021B0004FF4E01009906846FEF73CFC08B172B697
:1021C000FEE70F20CDE90A054FF48060CDE90C4011
:1021D00002210AA80E94FEF751FB002801D072B626
:1021E000FEE70FB030BD70470148FFF715B900009A
:1021F000280100200148FFF70FB9000070010020FE
:102200000148FFF709B90000B8010020F0B50268E5
:10221000164B174C174D4FF08047984205D0B842E7
:1022200003D0A04201D0A84203D122F070064A6830
:102230003243984205D0B84203D0A04201D0A84210
:1022400003D122F44074CA6822434C6922F0800210
:10225000224302608A68C2620A688262984201D19F
:102260000969016301214161F0BD0000002C0140BA
:10227000000400400008004010B501F01F030121D8
:10228000046A99408C430462016A9A4011430162D6
:1022900010BD10B5846842EA032224F47F440A4347
:1022A0002243826010BD826822F070020A4342F02D
:1022B000070181607047000030B5036A026A22F0AE
:1022C000010202624268846924F073050C682C43A1
:1022D00023F002058B682B430A4DA8420BD123F053
:1022E0000805CB6822F440722B434D6923F00403A8
:1022F00015438A692A4342608461496841630362E5
:1023000030BD0000002C014030B5026A036A23F0A2
:1023100010030362436884690D6824F4E64444EAC8
:1023200005248D6822F0200242EA05120B4DA842D6
:102330000ED1CD6822F0800242EA05124D6923F4E5
:10234000406343EA85038D6922F0400243EA850336
:102350004360846149688163026230BD002C0140A2
:1023600030B5036A026A22F4807202624268C4696C
:1023700023F4007324F073050C682C438D6843EA42
:1023800005230C4DA8420ED1CD6823F4006343EA27
:1023900005234D6922F4405242EA05128D6923F467
:1023A000806342EA05124260C4614968C163036206
:1023B00030BD0000002C014030B5046A026A22F4EE
:1023C000805202624268C3690D6823F4E64343EA1F
:1023D00005238D6824F4005444EA0534064DA842D0
:1023E00004D14D6922F4804242EA85124260C36101
:1023F00049680164046230BD002C014010B5036AD5
:10240000046A24F001040462846924F0F00444EABC
:10241000021423F00A020A438461026210BD000024
:1024200070B5056A046A24F00104046284690F4EE1
:10243000B04208D0B0F1804F05D00D4EB04202D06E
:102440000C4EB04203D124F00304144301E044F0E5
:1024500001041A0724F0F00444EA126225F00A038A
:1024600001F00A0119438261016270BD002C014034
:10247000000400400008004010B5036A046A24F01C
:1024800010040462846923F0A00324F4704444EA35
:10249000023243EA01118261016210BD30B5046A63
:1024A000056A25F010050562856925F4407545EA41
:1024B000022222F470454FF6FF7202EA033224F042
:1024C000A0032A43A02404EA011119438261016296
:1024D00030BD10B5406A0021C185C184FFF7AEF957
:1024E00010BD01680C3151E8002F22F4907241E8D0
:1024F0000023002BF5D10168143151E8002F22F0A0
:10250000010241E80023002BF5D1016B012909D11B
:1025100001680C3151E8002F22F0100241E800233D
:10252000002BF5D1202180F8421000210163704773
:1025300008B590F84210222901D0022008BD826817
:102540004FF480539A4201D1016921B1816A9A42C4
:102550001BD04AB10AE00268816A5268C2F30802DD
:102560000A80816A891C08E0026972B102685268B7
:1025700002F07F020A70816A491C8162C18D491E86
:102580000904090CC18503D01BE002685268F1E719
:102590000168CA6822F02002CA600168CA6822F491
:1025A0008072CA6001684A6922F001024A612021F2
:1025B00080F8421000214163026B012A03D0FFF72B
:1025C00015FB002008BD016301680C3151E8002FA4
:1025D00022F0100241E80023002BF5D101680A68BF
:1025E000D20602D50A6849680091818DFFF725F966
:1025F000E7E7000070B5044600680169E26821F46D
:102600004051114301612169A06808436169084391
:102610002168CA6841F20C639A430243CA60206889
:102620004169A26921F44071114341611E4920684A
:10263000884202D1FEF7C8F901E0FEF7B5F900EBD8
:10264000C00101EB0012606864218000B2FBF0F36E
:10265000B3FBF1F36FF018067343B2FBF0F5B2FB76
:10266000F0F605EB8305322303EB0515B5FBF1F519
:10267000B6FBF1F605F0F00505EB0615B2FBF0F63A
:10268000B2FBF0F0B0FBF1F06FF01802504306EB34
:10269000800003EB0010B0FBF1F0216800F00F00A8
:1026A0002844886070BD0000003801408162828546
:1026B000C28500214164222180F84210016921B1C4
:1026C0000168CA6842F48072CA6001684A6942F0CF
:1026D00001024A610068C16841F02001C160002028
:1026E000704700000148FFF7ABB80000000200206F
:1026F000FEE70907090E002804DB00F1E02080F85E
:102700000014704700F00F0000F1E02080F8141D65
:102710007047FEE72DE9F0470E46054699461446F8
:102720009168806800F050FD80466168686800F03C
:102730004BFD07462168286800F046FD394600F049
:10274000E1FB414600F0DEFB494600F043FC30600F
:10275000A168686900F038FD80466168286900F06A
:1027600033FD07462168E86800F02EFD394600F089
:10277000C9FB414600F0C6FB494600F02BFC7060E7
:10278000A168286A00F020FD80466168E86900F0D1
:102790001BFD07462168A86900F016FD394600F0C8
:1027A000B1FB414600F0AEFB494600F013FCB060BF
:1027B000A168E86A00F008FD80466168A86A00F038
:1027C00003FD07462168686A00F0FEFC394600F008
:1027D00099FB414600F096FB494600F0FBFBF06098
:1027E000BDE8F087FDF7BAFFFFF7CEFCFFF732FA3E
:1027F000FFF71AFAFFF786FAFFF700FBFFF772FB05
:10280000FFF71AFCFFF7E4FB002000F069FA012053
:1028100000F066FA022000F063FA032000F060FA8C
:10282000002000F0C1FA012000F0BEFA022000F002
:10283000BBFA032000F0B8FAFE480068C16841F016
:102840002001C1601222FC49FA48FFF7C1F9FB4898
:10285000FEF7C8FBFA48FEF7C5FBFA48FEF7EAFBAD
:102860000C21F648FEF788FF0421F448FEF784FFA8
:102870000421F348FEF780FFF1493220096888639C
:10288000EE490A68906309680864DFF8BCB3DFF8B2
:10289000BC83EF4CE84F1237788901287ED1E64E91
:1028A000E94DDFF8B0932D1D70782870B07868700E
:1028B000F078A8703079E870286820F00041494528
:1028C00001DB286801E000202860E34900F07CFC7F
:1028D000E249086070792870B0796870F079A87062
:1028E000307AE870286820F00040484501DA00207E
:1028F00028604FF00009C1F80490707A2870B07A0F
:102900006870F07AA870307B8A46E8704FF03F41DB
:10291000286800F059FCCAF80800707B2870B07B6A
:102920006870F07BA870307CE8702868CBF80000F5
:10293000CB48A7F80A90C94A0368CA49CA48FFF7B2
:10294000E9FEDFF82893C74E00254FF4000A00BFC8
:1029500056F82500504507DB05EB450000EB051058
:1029600009EB800000210AE080F0004046F82500D5
:1029700005EB450000EB051009EB8000012100F09C
:1029800037FA6D1CADB2042DE2D3B848316820305F
:1029900000F070FAB54871686C3000E08CE000F02F
:1029A00069FAB248B168B83000F064FAB048F1682A
:1029B00000F060FADBF800005D46B0F17E5F14D1F4
:1029C000AC490020FFF7A6FBAB4E01203146FFF7D4
:1029D000A1FB31460220FFF79DFB40F2DC50FDF7E2
:1029E000A7FD00210220FFF795FB2868B0F1804F7A
:1029F00024D1A2490020FFF78DFB00210120FFF721
:102A000089FB4FF461794846FDF792FD9A4E02200A
:102A10003146FFF77FFB4846FDF78AFD95490020C8
:102A2000FFF778FB31460120FFF774FB4FF47A7013
:102A3000FDF77EFD92490220FFF76CFB9149286863
:102A4000884207D18D490020FFF764FB8E490120A1
:102A5000FFF760FB2868B0F1814F07D18B49012057
:102A6000FFF758FB84490220FFF754FB884E286883
:102A7000B0421FD181490020FFF74CFB31460120B5
:102A8000FFF748FB4FF47A70FDF752FD002102205A
:102A9000FFF740FB40F2DC50FDF74AFD7B49012087
:102AA000FFF738FB4FF44870FDF742FD72490220F2
:102AB000FFF730FB002028603888C8B1B8F8001054
:102AC000F1B304294AD0206808290268136A4BD060
:102AD00023F4005313620068026A02625A4A083201
:102AE0001088401C10802068FEF724FC00203880ED
:102AF0007888C8B1B8F8041079B304293DD060686B
:102B000008290268136A42D023F400531362006854
:102B1000026A02624C4A08325088401C5080606849
:102B2000FEF708FC00207880B88870B3B8F8081069
:102B300061B3042934D008293AD0A068026800E0C3
:102B400003E0136A23F400532FE022681068036A3D
:102B500023F00A0303621068BEE708E020680268F9
:102B6000136A23F0A003B5E723F40073B2E76068AB
:102B70000268136A23F00A03C8E762681068036AF0
:102B800023F0A00303621068C2E724E002E023F40C
:102B90000073BBE7A0680268136A23F00A0304E02D
:102BA000A0680268136A23F0A0031362006806E0BD
:102BB000A2681068036A23F4007303621068026A53
:102BC0000262214808308288521C8280A068FEF789
:102BD000B1FB0020B880F888C8B1B8F80C1039B340
:102BE000042972D0E06808290268136A73D023F4BC
:102BF000005313620068026A0262134A0832D088E6
:102C0000401CD080E068FEF795FB0020F8803889F2
:102C100000283FF43FAE0C4D0021083513482A88A8
:102C200000F09EF800262E806A8801210F4831E0CE
:102C300043E0000000020020C00000202801002026
:102C400070010020B8010020000000208C0000204E
:102C50007C000020CDCC4C3D000096439C0200201F
:102C6000400000208C02002010000020E80200201C
:102C7000EC03002000006042000034430000B0423A
:102C800000002041000040400000B4420000DC424F
:102C90000000A0404C3000F063F86E80AA8802214A
:102CA0000E4800F05DF80D48AE80EA8803214C30F4
:102CB00000F056F8EE803E81ECE5E0680268136AA9
:102CC00023F00A0395E700E005E0E0680268136A74
:102CD00023F0A0038DE723F400738AE7800300202C
:102CE000014600EB410000EB01131A4830B400220A
:102CF00000F8232000EB8300174B4280427082646F
:102D000053F821304360144B103333F8214003EB68
:102D10008103C4815B880382104B83600E4B383B78
:102D200033F8113083810C4B303B53F8314003EBC7
:102D3000C10344615B688361074B103B33F821405A
:102D400003EB810184834988C183426430BC203015
:102D5000FFF790B9E80200207C000020E00000208E
:102D600070B5044640780D4601281AD16264606C43
:102D700000EB8000400000F00FFAA06400F096F82D
:102D8000084A02EBC502C2E9000104F12000A16C6F
:102D9000FFF780F9024629462046BDE8704000F062
:102DA00029B870BDA802002070B5044600EB4400AD
:102DB00000EB04120C48012100EB82050B486970FE
:102DC000A0F1100630F8241056F82400FEF7B2FAED
:102DD00056F82410002009684862A989A868BDE84F
:102DE0007040FEF7C9BC0000E80200208C00002003
:102DF0000170704770B504460D46104600F0ACF9FE
:102E000060802278A18B6069012A1CD00122FDF725
:102E100091FCE18B0022A069FDF78CFC124830F890
:102E200015101248B1B1042918D00829618800682A
:102E300018D00164608800F01FF80D4A02EBC5024B
:102E4000C2E9000170BD0022FDF774FCE18B012294
:102E5000A069E1E7006861884163EBE70068618889
:102E60008163E7E7C163E5E744000020E00000205C
:102E7000C802002001617047B0FA80F310FA03F134
:102E80000AD0C3F11D0303F580634FEA41504FEAB6
:102E9000035202EBD12170474FF000007047080841
:102EA000A0F500114FEA31017047000043004FEADE
:102EB000D30C4FEA3C0C43401FBF40070CF160515C
:102EC00013F0FE4F70471CF0006F03D100200CF090
:102ED000004170470CF0004343EA507010B540EADF
:102EE000CC0000F0F2F900BF000000924FEA0001B0
:102EF000FFF7D5BF4FF000414FF00000A1F50021D2
:102F00007047000090EA010F48BF81F0004100F1D6
:102F10003882421A3CBF801A89184FEAD0524FF0CB
:102F20007F4C1CEA410FA2EBD15318BF9CEA026F01
:102F300000F03B804FF0004C4CEA00204CEA0121AD
:102F400021FA03FC10EB0C0C1ED202F1FF325FEAF7
:102F50001C2040EBC25038BF70471CF07F0F4FEA77
:102F6000400C18BFBCF17F4F38BF7047C3F120033E
:102F7000994008BF20F00100BCF17F4F38BF704777
:102F8000A0F1C04000F0E7B94FEA3C00000A40EB76
:102F9000C25028BF1CF0FF0F4FEA400CE6D018BF0C
:102FA000BCF17F4F38BF7047EAE79CEA026F05D05B
:102FB00010EA5C0F08BF00F00040704710B500F049
:102FC00084F900BF64FBBE3E014800F048BA00BF70
:102FD0000000C07F4FF47F0C1CEAD0121EBF1CEA19
:102FE000D11392EA0C0F93EA0C0F00F0858090EA5F
:102FF000010F48BF42F4807240F4000C41F400001D
:103000002CF07F4120F07F4000B58142A2EB03020B
:103010000FF2081CACEB504EC0F100009EF800E02F
:103020004FEA4E0E00FB0EFC38BF49004FEA2C1C45
:1030300002F5FA020CFB0EF34FEACE1E4FEA112CFA
:103040004FEAC1210EEB635E42EB22420EFB0CFC09
:103050004FEA1C5300FB03114FEA112C4FEA0131D8
:103060000EFB0CFC4FEADC4C00FB0C11C14228BFEC
:1030700009184CEB03335DF804EB10EB410143EB13
:10308000C250B2F57C0F38BF704729D512F0F00F4F
:103090001CBF00F1C04000F00040704700818283F7
:1030A0008485868788898B8C8D8E8F919293959657
:1030B00097999A9C9D9FA0A2A3A5A7A8AAACAEB0E1
:1030C000B2B3B5B7B9BCBEC0C2C5C7C9CCCED1D4E6
:1030D000D7D9DCDFE2E6E9ECF0F3F7FAFE00000016
:1030E0004FEA400C0CF1807CBCF17E4F28BF70474A
:1030F000B0F1C04000F02FB990EA010F0CEAD113F3
:1031000048BF42F48072624538BF634507D213F46A
:103110007F0F16D080EA010000F00040704710B524
:1031200000F0D3F8097EFC3E00F005B880EA01000B
:1031300000F00040704780EA010000F0004000F01D
:103140000AB912F47F0F04BF0248704780EA0100F9
:1031500000F001B90000C07FC10DD1F19E0206DB75
:103160004FEA002343F0004323FA02F07047004285
:1031700007D54FEA4001B1F1FE4F02D24FF00000F7
:10318000704710B500F0A1F84992248000207047E4
:103190006FEA20007047000010F0004148BF404235
:1031A000B0FA80F310FA03F2C3F19D030BD051EA99
:1031B000C35101EB1220530638BF704700F10100E4
:1031C00008BF20F0010070474FF47F0C1CEAD012BA
:1031D0001EBF1CEAD11392EA0C0F93EA0C0F00F009
:1031E000478090EA010F48BF42F480724FF0004CD4
:1031F0004CEA00204CEA012102EB0302A0FB011380
:10320000A2F50002002918BF43F001035B0028BFAC
:103210004FEA330342EB22425FEA132C4CEBC250DD
:103220002EBFBCEB436FB2F57C0F70474FEA036CC7
:10323000BCF1004F08BF20F00100B2F57C0F38BF91
:1032400070470BD582F0FF0212F5803FC8BF704770
:1032500000F1C040D8BF00F00040704700F5000CFE
:103260005FEA4C0C48BF7047B0F1C04000F073B843
:1032700090EA010F0CEAD11348BF42F48072624514
:1032800038BF634504D280EA010000F00040704777
:1032900010B500F01AF800BF8900013E00F007B831
:1032A00000F009B85FEA410C5FEA1C6C08D080EAC4
:1032B000010000F050B85FEA400C5FEA1C6CF6D1E8
:1032C0004FF00040A0F5800070470EF1020E2EF086
:1032D000030E5EF8044B244204D44FEA4102B2F1DB
:1032E0007F4F11D84FEA4003B3F17F4F0CD80ED176
:1032F0004FEAD07CB2F17F4F0CEB4C0C0CF1020C7E
:1033000008BF4CEBD17C04E04FF0080C01E04FEA21
:10331000D17C0CEB4C0324FA03F404F00704B4F161
:10332000040C06D20EEB840CBDE810404CF0010CEE
:103330006047DFE80CF0070802024FF00040A0F5FC
:10334000800010BD0846420018BFD2F1807288BFCD
:1033500000F0004010BDFF2141EAD050C005704789
:1033600080F0004090EA010F7FF5D3AD81F000417D
:1033700000F007B890EA010F48BF81F000413FF527
:10338000C8AD421A04D882F00042A0EB02001144FA
:103390004FEAD0524FF07F4C1CEA410FA2EBD153C1
:1033A00018BF9CEA026F4AD04FF0004C4CEA002054
:1033B0004CEA012121FA03FCB0EB0C0C0FD412F003
:1033C000FE0F36D05FEA4C001DD5001240EBC25014
:1033D00038BF70471CF03F0F18BF70470BE0A2F1D9
:1033E00001025FEA1C2040EBC25038BF70471CF05E
:1033F0007F0F18BF7047C3F12003994014BF401ED0
:1034000020F00100704780084FEA122308BF704780
:10341000B0FA80FCA2EB0C02CCF1280C60FA0CF0A4
:1034200093EA122F04BF00EBC25070474FEAC370FB
:103430007047130A5FEADC1008BF7047F6E79CEAA2
:10344000026F04D010EA5C0F08BF0020704710B56F
:10345000FFF73BFF40DFF63E81F0004070470CF085
:103460000F03092B08BF082000F051800A2B0BD056
:10347000082B18BF704708BF1CF0400F0AD04FF050
:1034800000004FF0000170471CF0400F18BF4FF0D4
:10349000004070471CF0100F08D020F0704300F07F
:1034A0007F4242EAD3014FEA4370704700F0604028
:1034B00021F07F4242EA000201F07F4040EA727050
:1034C00070474FF0FF0212EAD0521CBF92F0FF0388
:1034D0008B42C2BFD14200EBC1507047002A0AD0D4
:1034E000002B0BD0002900F00040A4BF40F0FE40AC
:1034F00040F40000704700F00040704743024FF076
:103500000B0C18BF4CF0806C7FF45EAD70471CF460
:10351000801F11D01CF4E02F03D06FEACC3149009A
:1035200070474FF04050EFF3008222F0704242EAC1
:10353000000282F3008870474FF0000070470102DC
:1035400002030405060708090A0B0C0D0E0F1010E4
:103550000000000000000000010203040607080943
:10356000000000000102030488350008000000206C
:10357000C00000002801000848360008C0000020F4
:10358000B80900004401000800000000000000002D
:1035900000000000000000000000803F0000803FAD
:1035A00000007AC30000803F000080BF00007A4323
:1035B0000000803F0000803F00007A430000803F11
:1035C000000080BF00007AC3000016420000040023
:1035D00008000C00000801400008014000080140FC
:1035E00000080140000C0140000C0140000C0140AB
:1035F000000C014004000800100020000010002012
:1036000000400080280100202801002070010020D7
:10361000700100200000040008000C0000000400FD
:1036200008000C0004000C00040000002801002029
:10363000280100207001002001000000100000009F
:08364000000000000024F4006A
:04000005080000ED02
:00000001FF
