:020000040800F2
:10000000C00E0020C5010008A139000863350008B2
:100010009D3900085B0600089545000800000000B7
:10002000000000000000000000000000F13A00089D
:10003000FB0B000800000000573A0008F33A0008E4
:10004000DF010008DF010008DF010008DF01000810
:10005000DF010008DF010008DF010008DF01000800
:10006000DF010008DF010008DF010008DF010008F0
:10007000B10A0008DF010008DF010008DF01000805
:10008000DF010008C10A0008DF010008DF010008E5
:1000900061060008DF010008DF010008DF01000839
:1000A000DF010008DF010008DF010008DF010008B0
:1000B000D53B0008E53B0008DF010008DF01000830
:1000C000DF010008DF010008DF010008DF01000890
:1000D000DF010008DF010008DF010008DF01000880
:1000E000DF010008DF010008DF010008DF01000870
:1000F000DF010008DF010008DF010008DF01000860
:10010000DF010008DF010008DF010008DF0100084F
:10011000DF010008DF010008DF010008DF0100083F
:10012000DF010008D10A0008E10A0008DF01000829
:10013000DF010008DF010008DF010008DF0100081F
:10014000DF010008DF010008DF010008DF0100080F
:10015000DF010008DF010008DF010008DF010008FF
:10016000DF010008DF010008DF010008DF010008EF
:10017000DF010008DF010008DF01000800000000C7
:10018000DF010008DF010008DF010008DF010008CF
:10019000DF010008DF010008DF010008DF010008BF
:1001A0000000000000000000DF010008DFF810D0B0
:1001B00000F016FA0048004749460008AFF30080F7
:1001C000C00E00200648804706480047FEE7FEE7CD
:1001D000FEE7FEE7FEE7FEE7FEE7FEE7FEE7FEE7F7
:1001E000B93B0008AD0100082DE9F05F054600208D
:1001F00092469B4688460646814640241BE0284698
:1002000041464746224600F07EF953465A46C01AF8
:10021000914110D311461846224600F065F92D1A77
:1002200067EB01084F4622460120002100F05CF9EF
:1002300017EB00094E41201EA4F10104DFDC484603
:1002400031462A464346BDE8F09F40EA01039B073A
:1002500003D009E008C9121F08C0042AFAD203E03B
:1002600011F8013B00F8013B521EF9D27047D2B29F
:1002700001E000F8012B491EFBD270470022F6E78F
:1002800010B513460A4604461946FFF7F0FF20460C
:1002900010BD2DE9FE4F81EA030404F0004421F073
:1002A000004100944FF0000B23F0004350EA01049A
:1002B0005ED052EA03045BD0C3F30A54C1F30A557B
:1002C0002C44A4F2F3340194A0FB0254C1F31301B3
:1002D00041F48011C3F3130343F4801301FB024480
:1002E00000FB034E840A970A44EA815447EA835785
:1002F000A4FB076802958D0A05FB07854FEA932C3E
:1003000004FB0C542705029D4FEA065847EA1637AE
:10031000B5EB08056EEB070C870E920E47EA8117C6
:1003200042EA8312A7FB0201B6EB0B0164EB000467
:100330002B0D43EA0C335E1844EB1C50DA46514651
:10034000E7FB0201C5F313044FEA0B3343EA1453EE
:100350004FEA0432019C43EA0603A4F10C04029420
:10036000009CCDE900B400F0EDF803B0BDE8F08FDB
:1003700000200146F9E72DE9F04D81EA030404F07D
:10038000004B21F0004514464FF0000A23F00041D5
:1003900050EA050220D054EA01021DD0C5F30A57E5
:1003A0000246C5F31303C1F31300C1F30A5640F428
:1003B000801543F48013A7EB0608101BD64608F2FD
:1003C000FD3873EB050002D308F1010801E0921833
:1003D0005B41B8F1000F03DA00200146BDE8F08D63
:1003E00000204FF48011064684460EE0171B73EB85
:1003F000050705D3121B63EB050306434CEA010C0A
:1004000049084FEA300092185B4150EA0107EDD1EC
:1004100052EA030012D082EA040083EA050108438D
:1004200005D0101BAB4106D20122002306E00022BA
:100430004FF0004302E06FF0010253101AEB060088
:100440004CEB085110EB0A0041EB0B01BDE8F04DFD
:1004500000F069B80EB5C10F80EAE0700844CA0721
:10046000002140F233438DE80E000A460B4600F0AF
:1004700069F803B000BD0EB540F23341029100218E
:10048000CDE900110A460B4600F05CF803B000BD50
:1004900000F0004230F000400AD0C10D01F560715B
:1004A000C0F3160042EA0151C208400711437047E9
:1004B000002001467047000030B5041E71F10004B1
:1004C00004DB4FF00044404264EB0101141E73F161
:1004D000000405DB1C464FF00043524263EB04036B
:1004E0008B4208BF824230BD202A04DB203A00FA4A
:1004F00002F1002070479140C2F1200320FA03F37B
:10050000194390407047202A04DB203A21FA02F078
:100510000021704721FA02F3D040C2F1200291403D
:1005200008431946704710B5141E73F1000408DA29
:10053000401C41F1000192185B411A4301D120F0A7
:10054000010010BD2DE9F04D92469B4611B1B1FA64
:1005500081F202E0B0FA80F220329046FFF7C4FF49
:1005600004460F4640EA0A0041EA0B0153465A4648
:10057000084313D0114653EA010019D0C8F14002D4
:100580005046FFF7C0FF05460E46504659464246C4
:10059000FFF7AAFF084305D0012004E020463946B2
:1005A000BDE8F08D0020054346EAE0762C43374352
:1005B0000A986305E40AA0EB08000022FD0A44EA59
:1005C00047540A3002D500200146E9E70105101919
:1005D0006941DDE9084500196941BDE8F04DA2E730
:1005E000064C074D06E0E06840F0010394E8070080
:1005F00098471034AC42F6D3FFF7DCFD7C4E000880
:100600009C4E000870B58C1810F8015B15F00703BC
:1006100001D110F8013B2A1106D110F8012B03E09B
:1006200010F8016B01F8016B5B1EF9D12B0705D4A3
:100630000023521E0DD401F8013BFAE710F8013BEC
:10064000CB1A921C03E013F8015B01F8015B521E08
:10065000F9D5A142D8D3002070BD00BFFEE700004D
:1006600010B5024800F0F9FC10BD0000680200203F
:1006700010B58AB00446002005900690012007902E
:1006800000200090019002900390049001200890B7
:100690000E2009906946204600F074FB08B100F076
:1006A000ADFA204600F02BFF08B100F0A7FA0221B6
:1006B000204600F0A6FA08B100F0A0FA00200AB027
:1006C00010BD00000FB410B5049818B90349029882
:1006D00000F07EF810BC5DF814FB00000C02002056
:1006E0002DE9F04188B080460C4615461E460E9F07
:1006F0000820069080010290002004900590200AB6
:100700008DF80000E0B28DF80100280A8DF8020093
:10071000E8B28DF80300300A8DF80400F0B28DF8CD
:100720000500380A8DF80600F8B28DF8070000BF02
:10073000404600F077FC0028FAD0064B6A4602A932
:10074000404600F073FA08B100F058FA08B0BDE86E
:10075000F0810000080200202DE9F04188B08046B9
:100760000C4615461E460E9F0820069040F2FF10CC
:100770000290002004900590200A8DF80000E0B25D
:100780008DF80100280A8DF80200E8B28DF8030008
:10079000300A8DF80400F0B28DF80500380A8DF8A3
:1007A0000600F8B28DF8070000BF404600F03AFCA2
:1007B0000028FAD0054B6A4602A9404600F036FAF6
:1007C00008B100F01BFA08B0BDE8F0810802002073
:1007D00070B505460E46A5F20124002C29DB082C35
:1007E00027DA04EBC400144901EB001040683228FA
:1007F00015DA04EBC401104A02EB0110314603F094
:1008000001FF04EBC4000C4901EB00104068401CE0
:1008100004EBC401084A02EB0111486007E004EB55
:10082000C401054A02EB0110314600F0A1F8002096
:1008300070BD0120FCE70000B0050020002081E031
:10084000B2EE0E0A00EBC001404A02EB011181ED4D
:100850000E0AB7EE000A00EBC00102EB011181EDB8
:100860000F0AB7EE000A00EBC00102EB011181EDA7
:10087000100A9FED370A00EBC00102EB011181ED78
:10088000170A9FED340A00EBC00102EB011181ED64
:10089000190AB7EE000A00EBC00102EB011181ED6D
:1008A0001A0A9FED2D0A00EBC00102EB011181ED48
:1008B0001B0A9FED2A0A00EBC00102EB011181ED3A
:1008C000220A042803D0062801D0052808D19FED6C
:1008D000240A00EBC0011D4A02EB011181ED220A3E
:1008E0009FED1D0A00EBC001184A02EB011181EDDA
:1008F000230A00EBC00102EB0111097841B99FED19
:10090000190A00EBC00102EB011181ED0C0A0FE0A6
:1009100000EBC0010D4A02EB01110978012907D152
:100920009FED110A00EBC00102EB011181ED0C0AF1
:100930009FED0E0A00EBC001044A02EB011181EDAC
:100940000D0A401C0828FFF67BAF7047B005002059
:1009500000401C460000A0420000000000409C45F2
:1009600000002F442CA099410000104200000046D6
:1009700070B52DED028B04460D466878297840EA63
:10098000012000EE100AB8EEC00ADFED450A20EEA5
:10099000200AD4ED0D0A80EE201A84ED021AE878C0
:1009A000A97840EA012000B200EE100AB8EEC00AB1
:1009B00084ED030A6879297940EA012000B200EE4B
:1009C000100AB8EEC00A84ED040A94ED070A84ED1B
:1009D000060A94ED020A84ED070A94ED070AD4EDA5
:1009E000060A30EE600ADFED2F0AB4EEE00AF1EEFF
:1009F00010FA03DD606A401E606216E094ED070A9B
:100A0000D4ED060A30EE600A10EE101A0846FFF721
:100A10003FFD41EC180B9FED240B53EC102BFFF71F
:100A20004BFD02D2606A401C606294ED090AB8EE88
:100A3000C00ADFED1B0A20EE200A84ED0A0A94EDBD
:100A4000070AD4ED080A30EE600AD4ED0A0A30EE47
:100A5000200A84ED0A0A94ED0A0AD4ED0C0A80EE0D
:100A6000201A84ED0A1A94ED030AD4ED0C0A80EEE4
:100A7000201A84ED0B1A4FF4B471606A484300EEFB
:100A8000100AB8EEC00AD4ED070A30EE200AD4ED01
:100A9000080A30EE600A84ED050ABDEC028B70BDD9
:100AA0000000B4430000344300000000008066C032
:100AB00010B5024800F05AFD10BD0000F0040020FF
:100AC00010B5024800F052FD10BD000030040020B7
:100AD00010B5024800F04AFD10BD0000500500208E
:100AE00010B5024800F042FD10BD00009004002047
:100AF0000146087810381823B0FBF3F20848805CF0
:100B0000C865032A05D908686FF30900001D8865C8
:100B100003E008686FF309008865886D704700007E
:100B20005C4E0008014600208A6A8B69CBB932B15D
:100B3000012A0DD0022A03D0032A10D10EE000BFF3
:100B4000CB6A03F08073B3F1807F00D1012007E00E
:100B5000CB6AB3F1C07F00D1012001E000E000BF0B
:100B600034E08B69B3F5005F1AD132B1012A07D0A6
:100B7000022A03D0032A11D10AE000BF01200EE0AF
:100B8000CB6A03F08073B3F1807F00D1012006E0CF
:100B9000CB6AB3F1C07F00D1012000E000BF15E0B7
:100BA00032B1012A05D0022A04D0032A0CD103E075
:100BB00000BF00BF012008E0CB6A03F08073B3F1EF
:100BC000807F00D1012000E000BF00BF704730B53A
:100BD0000468246824F4802405682C600468636039
:100BE0008468402C04D10468A2600468E16003E0DA
:100BF0000468A1600468E26030BD704772B600BF4F
:100C0000FEE710B5024692F82030012B01D0022BEE
:100C100006D110684069084314686061002010BD67
:100C2000506A40F4802050620120F8E7F0B5044695
:100C30000D461E4694F8207020688368A86800B9A5
:100C400000E000BF012F01D0022F7CD103F08060B3
:100C500030B903F0006018B903F08050002873D059
:100C6000C3F30161022905D9606A40F400006062A3
:100C70000120F0BD012088403060A86860B9B5F857
:100C800000C0E86840EA4C5C206800F5C07000EBEA
:100C90000110C0F800C00FE0D5E901C040EACC0067
:100CA000D5F80CC040EA0C00D4F800C00CF5C07CAC
:100CB0000CEB011CCCF80000D5F810C0206800F542
:100CC000C07000EB0110C0F804C0287D01280ED1CF
:100CD000206800F5C07000EB0110406840F4807C93
:100CE000206800F5C07000EB0110C0F804C0D07996
:100CF000000692F806C040EA0C4092F805C040EAAF
:100D00000C2C10794CEA000C206800F5C07000EB48
:100D10000110C0F80CC0D078000692F802C040EA7A
:100D20000C4092F801C040EA0C2092F800C040EA62
:100D30000C00D4F800C00CF5C07C0CEB011CCCF806
:100D40000800206801E016E00FE000F5C07000EB3D
:100D50000110006840F0010C206800F5C07000EB45
:100D60000110C0F800C0002083E7606A40F4001062
:100D7000606201207DE7606A40F4802060620120AB
:100D800077E70000F0B504460A46216894F8205041
:100D9000012D01D0022D7ED1424901F50071086874
:100DA00040F001000860086820F47C500860086882
:100DB000566A40EA06200860107D00F01F060120F8
:100DC00000FA06F3C8699843C861A1F50071D069BB
:100DD000C8B9D1F80C029843C1F80C02908880B2CF
:100DE000968940EA064601F51070576940F8376069
:100DF000108880B2168940EA064601F510705769DE
:100E000000EBC7004660D069012819D1D1F80C0267
:100E10001843C1F80C02908880B2168840EA064652
:100E200001F51070576940F83760908980B21689D3
:100E300040EA064601F51070576900EBC7004660AE
:100E4000906928B9D1F804029843C1F8040204E07B
:100E5000D1F804021843C1F80402106928B9D1F886
:100E600014029843C1F8140204E0D1F814021843A4
:100E7000C1F81402106A012804D1D1F81C021843E9
:100E8000C1F81C02D1F8000220F00100C1F80002F4
:100E90000020F0BDFFE7606A40F48020606201201E
:100EA000F7E7000000640040704770B5044694F80E
:100EB0002050012D01D0022D7DD151B92068C0688C
:100EC00000F0030080B9606A40F400106062012005
:100ED00070BD2068006900F0030028B9606A40F422
:100EE000001060620120F3E7206800F5D87000EB85
:100EF0000110006800F004009060906840B920681C
:100F000000F5D87000EB01100068400D106007E09C
:100F1000206800F5D87000EB01100068C008506030
:100F2000206800F5D87000EB0110006800F00200A6
:100F3000D060206800F5D87000EB0110406800F028
:100F40000F001061206800F5D87000EB01104068B8
:100F500000F47F40000A9061206800F5D87000EB33
:100F600001104068000C5061206800F5D87000EB5B
:100F7000011080681870206800F5D87000EB01102F
:100F8000806800F47F40000A5870206800F5D8702F
:100F900000EB0110806800F47F00000C987020685E
:100FA00000F5D87000EB01108068000ED870206842
:100FB00000F5D87000E02FE000EB0110C068187158
:100FC000206800F5D87000EB0110C06800F47F4085
:100FD000000A5871206800F5D87000EB0110C06855
:100FE00000F47F00000C9871206800F5D87000EBC9
:100FF0000110C068000ED87131B92068C06840F097
:1010000020002668F06005E02068006940F02000BC
:101010002668306100205BE7606A40F480206062EF
:10102000012055E70146002091F82020012A01D037
:10103000022A11D10B689B6803F0806303B1401C46
:101040000B689B6803F0006303B1401C0B689B684E
:1010500003F0805303B1401C70472DE9F05F044654
:101060000025206846692068D0F8049020688768C9
:101070002068D0F80CA02068D0F810B02068D0F814
:10108000188006F00100002855D007F00100C0B11B
:1010900001202168886007F0020018B1204600F0A6
:1010A0005EFA0EE007F0040010B145F4006508E0B8
:1010B00007F0080010B145F4805502E0204600F02A
:1010C0004DFA07F48070C8B14FF4807021688860D1
:1010D00007F4007018B1204600F043FA0EE007F460
:1010E000806010B145F4005508E007F4006010B1CD
:1010F00045F4804502E0204600F032FA07F48030E3
:10110000C8B14FF480302168886007F4003018B10E
:10111000204600F028FA0EE007F4802010B145F4D4
:10112000004508E007F4002010B145F4803502E0E6
:10113000204600F017FA06F0080038B10AF0100057
:1011400020B145F4007510202168C86006F0040045
:1011500040B10AF0080028B108202168C860204684
:1011600000F0A8F906F0020038B12068C06800F06D
:10117000030010B1204600F09FF906F0400038B19E
:101180000BF0100020B145F4806510202168086143
:1011900006F0200040B10BF0080028B108202168BB
:1011A0000861204600F0A8F906F0100038B1206868
:1011B000006900F0030010B1204600F09EF906F42B
:1011C000003040B109F0100028B1102021684860BB
:1011D000204600F093F906F4803040B109F0080091
:1011E00028B1082021684860204600F0BDF906F4C7
:1011F000004088B309F0040078B306F4807020B191
:1012000008F0010008B145F0010506F4007020B1B6
:1012100008F0020008B145F0020506F4806020B134
:1012200008F0040008B145F0040506F40060A0B120
:1012300008F0700088B108F07000402817D006DC74
:1012400010280BD020280CD0302819D10CE05028C1
:1012500010D0602814D110E01DE019E045F0080519
:101260000FE045F010050CE045F0200509E045F0E1
:10127000400506E045F0800503E045F4807500E098
:1012800000BF00BF2068806920F07000216888617D
:101290000420216848602DB1606A284360622046BE
:1012A000FFF702FEBDE8F09F70B504460CB90120BF
:1012B00070BD94F8200010B9204600F0AFF8206807
:1012C000006840F001002168086000F051FC05460C
:1012D0000DE000F04DFC401B0A2808D9606A40F47C
:1012E00000306062052084F820000120E0E72068DB
:1012F000406800F001000028EBD02068006820F072
:1013000002002168086000F033FC05460DE000F0A3
:101310002FFC401B0A2808D9606A40F40030606244
:10132000052084F820000120C2E72068406800F012
:1013300002000028EBD1207E012806D12068006839
:1013400040F080002168086005E02068006820F017
:10135000800021680860607E012806D1206800684E
:1013600040F040002168086005E02068006820F037
:10137000400021680860A07E012806D1206800682E
:1013800040F020002168086005E02068006820F037
:10139000200021680860E07E012806D120680068EE
:1013A00020F010002168086005E02068006840F027
:1013B000100021680860207F012806D1206800689D
:1013C00040F008002168086005E02068006820F00F
:1013D000080021680860607F012806D12068006845
:1013E00040F004002168086005E02068006820F0F3
:1013F000040021680860D4E9020108432169084318
:10140000616908436168491E08432168C86100207A
:101410006062012084F82000002049E710B586B002
:101420000446142101A8FEF729FF1F4920688842BD
:1014300037D100BF002000901C48006840F00070C9
:101440001A4908600846006800F00070009000BF6C
:1014500000BF00BF0020009014481038006840F022
:1014600008001249103908600846006800F00800BA
:10147000009000BF00BF03200190022002900020D6
:101480000390032004900920059001A9084800F06A
:1014900061FA00221146142000F0F4FB142000F041
:1014A000E1FB06B010BD000000640040403802407F
:1014B000000C02407047000010B58AB004460C4989
:1014C00020680968884210D10A4B03AA00212046EF
:1014D000FFF7EBFC08B1FFF791FB07A807C88DE801
:1014E000070003A80FC8FFF7EDF80AB010BD000011
:1014F000680200200C02002070477047704770B5EA
:10150000044694F82000012822D1022084F820000B
:101510002068006820F001002168086000F028FBC6
:1015200005460DE000F024FB401B0A2808D9606A3C
:1015300040F400306062052084F82000012070BD76
:101540002068406800F001000028EBD16062F6E7F7
:10155000606A40F4002060620120F0E77047704745
:10156000704770477047704770470000F8B50446F1
:10157000002000908C4800684FF41651B0FBF1F742
:10158000A56D2E6894F85C1008208840304098B112
:101590002068006800F0040070B12068006820F046
:1015A00004002168086094F85C1008208840A86056
:1015B000606D40F00100606594F85C100120884087
:1015C000304068B12068406900F0800040B194F874
:1015D0005C1001208840A860606D40F002006065EA
:1015E00094F85C1004208840304068B1206800689E
:1015F00000F0020040B194F85C1004208840A8601C
:10160000606D40F00400606594F85C101020884024
:10161000304078B32068006800F0080050B394F8B8
:101620005C1010208840A8602068006800F48020CA
:1016300080B12068006800F4002028B9206CC8B18F
:101640002046216C884715E0A06C98B12046A16C1B
:1016500088470FE02068006800F4807028B920688F
:10166000006820F0080021680860206C10B1204656
:10167000216C884794F85C10202088403040002876
:1016800065D02068006800F0100000285FD094F852
:101690005C1020208840A86094F83500052828D1E7
:1016A0002068006820F01600216808602068406902
:1016B00020F0800021684861206C08B9A06C28B136
:1016C0002068006820F008002168086094F85C1029
:1016D0003F208840A860012084F8350000BF00202A
:1016E00084F8340000BF206D10B12046216D88477A
:1016F000F8BD2068006800F4802080B12068006890
:1017000000F4002028B9606C10B12046616C884755
:101710001DE0E06BD8B12046E16B884717E02068F8
:10172000006800F4807068B92068006820F010003C
:1017300021680860012084F8350000BF002084F88B
:10174000340000BFE06B10B12046E16B8847606D4C
:1017500038B3606D00F00100F0B1052084F8350069
:101760002068006820F001002168086000BF009830
:10177000401C0090B84200D905E02068006800F0E5
:1017800001000028F3D100BF012084F8350000BF1C
:10179000002084F8340000BFE06C10B12046E16CFA
:1017A000884700BFA4E70000500200202DE9F04167
:1017B0000446002500F0DCF9074614B90120BDE815
:1017C000F081606A00B100BF022084F8350000BFDC
:1017D000002084F8340000BF2068006820F0010079
:1017E000216808600AE000F0C3F9C01B052805D98C
:1017F00020206065032084F83500E0E72068006859
:1018000000F001000028EED120680568214805405D
:10181000D4E901010843E16808432169084361698B
:101820000843A1690843E1690843216A0843054365
:10183000606A042803D1D4E90B01084305432068FA
:1018400005602068456925F00705606A0543606A00
:1018500004280DD1A06A0543E06A48B12046FFF78D
:1018600061F928B140206065012084F83500A6E7C1
:10187000206845612046FFF73BF9064694F85C1066
:101880003F208840B06000206065012084F835006A
:10189000002094E73F8010F02DE9F04704460D4604
:1018A00016461F464FF00008D4F8589000BF94F831
:1018B0003400012802D10220BDE8F087012084F81D
:1018C000340000BF94F83500012825D1022084F8A7
:1018D0003500002060653B46324629462046FFF72A
:1018E00076F994F85C103F208840C9F80800206819
:1018F000006840F0160021680860206C28B120685C
:10190000006840F00800216808602068006840F026
:1019100001002168086006E000BF002084F8340060
:1019200000BF4FF002084046C6E7000070B504460D
:1019300000F01EF906462546681C10B104480078E0
:10194000054400BF00F014F9801BA842FAD370BD13
:101950004C020020F8B502460B460025002400206A
:101960000021E0E0012606FA01F51E6806EA0504FA
:10197000AC4274D11E7906F00306012E04D01E7904
:1019800006F00306022E13D190684F000326BE40D6
:10199000B0434F00DE68BE4030439060506801267F
:1019A0008E40B0431E79C6F300168E40304350601F
:1019B0001E7906F00306032E09D0D0684F000326D7
:1019C000BE40B0434F009E68BE403043D0601E7999
:1019D00006F00306022E13D1CF0802F1200656F8B6
:1019E00027004E07F70E0F26BE40B0434F07FF0EED
:1019F0001E69BE403043CF0802F1200646F827009A
:101A000010684F000326BE40B0431E7906F003065F
:101A10004F00BE40304310605E6806F44036002E32
:101A20001DD000BF00260096414E366846F4804621
:101A30003F4F3E603E46366806F48046009600BF43
:101A400000BF3C4E8F0856F827008E07370F0F2631
:101A5000BE40B043384EB24202D100262EE061E0D3
:101A6000364EB24201D1012628E0354EB24201D1B4
:101A7000022623E0334EB24201D103261EE0324E4D
:101A8000B24201D1042619E0304EB24201D10526FE
:101A900014E02F4EB24201D106260FE02D4EB24285
:101AA00001D107260AE02C4EB24201D1082605E0FA
:101AB0002A4EB24201D1092600E00A268F073F0FC5
:101AC000BE4030431B4E8F0846F82700244E306836
:101AD000A0435E6806F4801606B12043204E3060B5
:101AE000361D3068A0435E6806F4001606B1204338
:101AF0001B4E361D30601A4E361F3068A0435E689C
:101B000006F4003606B12043154E361F3060361FEE
:101B10003068A0435E6806F4803606B12043104E5C
:101B2000083E3060491C1029FFF41CAFF8BD0000CE
:101B300044380240083801400000024000040240DE
:101B400000080240000C0240001002400014024055
:101B500000180240001C0240002002400024024005
:101B6000083C01400AB1816101E00B0483617047C8
:101B700001480068704700004402002003480068E4
:101B8000034909780844014908607047440200206D
:101B90004C02002010B50D48006840F400700B495D
:101BA00008600846006840F48060086008460068E5
:101BB00040F480700860032000F0A2F8002000F0DC
:101BC00007F800F02BF8002010BD0000003C024098
:101BD00070B504460E4800784FF47A71B1FBF0F00E
:101BE0000C490968B1FBF0F5284600F071FC08B11A
:101BF000012070BD102C07D200222146501E00F09B
:101C000041F80548046001E00120F2E70020F0E718
:101C10004C020020500200204802002008B500BFFE
:101C2000002000900E48006840F480400C49086095
:101C30000846006800F48040009000BF00BF00BF6D
:101C400000200090081F006840F08050091F0860C5
:101C50000846006800F08050009000BF00BF08BD3B
:101C60004438024001460846002809DB00F01F0303
:101C700001229A4043099B0003F1E023C3F80021AD
:101C800000BF70472DE9F05F80460D4616460027DD
:101C900002F082FC074639462A46334601F0070027
:101CA000C0F1070ABAF1040F02D94FF0040A01E0AB
:101CB000C0F1070AD14600F1040ABAF1070F02D2B7
:101CC0004FF0000A01E0A0F1030AD4464FF0010AE8
:101CD0000AFA09FAAAF1010A0AEA020A0AFA0CFA4D
:101CE0004FF0010B0BFA0CFBABF1010B0BEA030BF2
:101CF0004AEA0B042146404602F056FCBDE8F09F3C
:101D000000BF00F00702064B19684FF6FF031940A9
:101D1000044B0B4343EA0221014B196000BF70479B
:101D20000CED00E00000FA0538B5002400BF0020EB
:101D300000901D48006840F080501B49086008462C
:101D4000006800F08050009000BF00BF01201749DC
:101D50000864FFF70DFF044607E0FFF709FF001BCB
:101D6000B0F57A7F01D9032038BD1148406800F4EE
:101D70008030B0F5803FF0D101200C494864FFF776
:101D8000F7FE044607E0FFF7F3FE001BB0F57A7F8D
:101D900001D90320E8E70648406800F40030B0F5B8
:101DA000003FF0D10020DFE74038024000000E4243
:101DB0000070004070B504460D460CB9012070BD9E
:101DC0005848006800F00F00A84209D255490D702C
:101DD0000846006800F00F00A84201D00120EEE79D
:101DE000207800F0020002281DD1207800F00400C5
:101DF000042805D14C48006840F4E0504A49086086
:101E0000207800F00800082805D14748006840F411
:101E10006040454908604448006820F0F000A1682F
:101E2000084341490860207800F00100A8B36068C9
:101E3000012807D13C4808380068C0F34040B8B9D1
:101E40000120BCE76068022802D06068032807D13F
:101E5000354808380068C0F3406048B90120AEE753
:101E6000314808380068C0F3400008B90120A6E7EF
:101E70002D48006820F00300616808432A49086083
:101E8000FFF776FE064609E0FFF772FE801B41F27F
:101E90008831884202D9032091E707E02248006890
:101EA00000F00C006168B0EB810FEDD11D480068B7
:101EB00000F00F00A84209D91A490D7008460068C1
:101EC00000F00F00A84201D0012078E7207800F050
:101ED0000400042807D11448006820F4E050E168A9
:101EE000084311490860207800F00800082808D14C
:101EF0000D48006820F46040216940EAC1000A49A9
:101F0000086000F03FF808490968C1F30311074A67
:101F1000515CC8400649086006480068FFF758FE53
:101F200000204CE7003C024008380240644E0008A4
:101F3000500200204802002001480068704700005D
:101F40005002002000B5FFF7F7FF04490968C1F30C
:101F50008221034A515CC84000BD0000083802409D
:101F6000744E000800B5FFF7E7FF04490968C1F3A4
:101F70004231034A515CC84000BD000008380240AD
:101F8000744E00082DE9F047002400250026A146E4
:101F90002548006800F00C0020B1042805D008286E
:101FA0003AD105E0DFF8849039E0DFF8849036E03C
:101FB0001D48001F006800F03F041B48001F006818
:101FC00000F4800078B11A481749091F0968C1F365
:101FD0008811A0FB01700146224600233846FEF717
:101FE00003F905460EE011480F49091F0968C1F3BE
:101FF0008811A0FB01700146224600233846FEF7F7
:10200000F3F805460848001F0068C0F30140401C73
:102010004600B5FBF6F902E0DFF8109000BF00BF04
:102020004846BDE8F0870000083802400024F4006C
:10203000001BB700F8B504460CB90120F8BD2078A4
:1020400000F00100002874D0F948006800F00C008E
:1020500004280DD0F648006800F00C00082813D1C1
:10206000F348001F006800F48000B0F5800F0BD12A
:10207000EF4808380068C0F34040002859D0606835
:10208000002856D10120D9E700BF6068B0F5803F35
:1020900008D1E7480838006840F48030E44908393E
:1020A00008601EE06068B0F5A02F0DD1E048083848
:1020B000006840F48020DE4908390860084600685E
:1020C00040F4803008600CE0D9480838006820F4FB
:1020D0008030D749083908600846006820F480201D
:1020E000086000BF606890B1FFF742FD054606E05A
:1020F000FFF73EFD401B642801D903209EE7CC4832
:1021000008380068C0F340400028F1D011E0FFF724
:102110002FFD054606E0FFF72BFD401B642801D983
:1021200003208BE7C24808380068C0F3404000280D
:10213000F1D1207800F0020002285FD1BC4800688D
:1021400000F00C0058B1BA48006800F00C000828F4
:102150001CD1B748001F006800F48000B0B9B44833
:1021600008380068C0F3400020B1E068012801D0C1
:10217000012063E7AE480838006820F0F8002169C4
:1021800040EAC100AA490839086037E0E06800B3B6
:102190000120A8490860FFF7EBFC054606E0FFF7C1
:1021A000E7FC401B022801D9032047E7A048083874
:1021B0000068C0F340000028F1D09D48083800684E
:1021C00020F0F800216940EAC10099490839086007
:1021D00014E0002097490860FFF7CAFC054606E0B6
:1021E000FFF7C6FC401B022801D9032026E79048D0
:1021F00008380068C0F340000028F1D1207800F0D2
:10220000080008282CD16069A8B101208A4908601B
:10221000FFF7AEFC054606E0FFF7AAFC401B0228CC
:1022200001D903200AE782486C300068C0F34000FF
:102230000028F1D014E000207F490860FFF798FCE7
:10224000054606E0FFF794FC401B022801D9032055
:10225000F4E677486C300068C0F340000028F1D104
:10226000207800F00400042870D10027704838302E
:10227000006800F0805090B900BF002000906C48CA
:102280003830006840F080506949383108600846AD
:10229000006800F08050009000BF00BF0127674831
:1022A000006800F48070B0B96448006840F4807041
:1022B00062490860FFF75CFC054606E0FFF758FC42
:1022C000401B022801D90320B8E65C48006800F4EE
:1022D00080700028F2D000BFA068012808D15448BF
:1022E0006830006840F001005149683108601DE025
:1022F000A06805280DD14E486830006840F0040001
:102300004B49683108600846006840F001000860E9
:102310000CE047486830006820F00100444968310B
:1023200008600846006820F00400086000BFA0684C
:10233000A8B1FFF71DFC054609E0FFF719FC401B9B
:1023400041F28831884202D9032077E626E03848F6
:1023500068300068C0F340000028EED013E0FFF7BB
:1023600007FC054608E0FFF703FC401B41F28831FB
:10237000884201D9032061E62D4868300068C0F327
:1023800040000028EFD1012F07D1294838300068DC
:1023900020F0805026493831086000BFA06900282D
:1023A00045D02348006800F00C0008285DD0A069E3
:1023B000022845D100201F490866FFF7D9FB0546D2
:1023C00006E0FFF7D5FB401B022801D9032035E6C4
:1023D000174808380068C0F340600028F1D1D4E9FC
:1023E00007010843616A40EA81110122A06AC2EB39
:1023F000500041EA00412C20005D41EA00600C4998
:10240000091F086001200B490866FFF7B1FB05466C
:1024100006E0FFF7ADFB401B022801D903200DE6C3
:10242000034808380068C0F340600028F1D049E054
:102430000838024000004742800E474200700040CA
:10244000002021490866FFF793FB054606E0FFF7E9
:102450008FFB401B022801D90320EFE51B480068D1
:10246000C0F340600028F2D12CE0A069012800D11F
:10247000E4E51648001D0668A069012820D006F48E
:102480008001E06981421BD106F03F01206A814250
:1024900016D147F6C0703040616AB0EB811F0FD192
:1024A00006F440310122A06AC2EB5000B1EB004FAC
:1024B00006D106F070612C20005DB1EB006F01D0F9
:1024C0000120BBE50020B9E500004742003802408A
:1024D00070B504462546681EB0F1807F01D3012007
:1024E0000FE0681E4FF0E02148610F214FF0FF30F0
:1024F00002F05AF800204FF0E021886107200861BF
:10250000002070BD7047704730B502460B4600BFD3
:1025100092F83C00012801D1022030BD012082F850
:102520003C0000BF022082F83D001068446810683B
:10253000816824F070041868044310684460184DE2
:102540001068A8421BD01068B0F1804F17D0154D0D
:102550001068A84213D0144D1068A8420FD0134D34
:102560001068A8420BD0124D1068A84207D0114D38
:102570001068A84203D0104D1068A84205D121F080
:1025800080015868014310688160012082F83D0095
:1025900000BF002082F83C0000BF00BFBDE7000084
:1025A000000001400004004000080040000C004012
:1025B00000040140004001400018004010B50446EE
:1025C0000CB9012010BD94F83D0028B9002084F812
:1025D0003C00204600F026F8022084F83D00211D32
:1025E000206801F007FB012084F8460000BF84F852
:1025F0003E0001213F200155402001554120015559
:1026000000BF00BF012084F8420043200155442050
:1026100001554520015500BF012084F83D000020F0
:10262000D0E7000038B504462068B0F1804F18D1DB
:1026300000BF002000901948006840F001001749D1
:1026400008600846006800F00100009000BF00BF6D
:10265000002211461C20FFF715FB1C20FFF702FB90
:102660001BE00F492068884217D100BF002000906E
:102670000A48006840F002000849086008460068FF
:1026800000F00200009000BF00BF002211461D2094
:10269000FFF7F8FA1D20FFF7E5FA38BD4038024091
:1026A00000040040014691F83D00012801D00120BE
:1026B0007047022081F83D000868C06840F00100C2
:1026C0000B68D8601A4B086898421BD00868B0F1B4
:1026D000804F17D0174B0868984213D0164B0868E4
:1026E00098420FD0154B086898420BD0144B0868DD
:1026F000984207D0134B0868984203D0124B0868E1
:1027000098420CD10868806800F00702062A0CD0B5
:102710000868006840F001000B68186005E0086870
:10272000006840F001000B6818600020C0E700005E
:10273000000001400004004000080040000C004080
:102740000004014000400140001800402DE9F04124
:1027500004460D46002700BF94F83C00012802D132
:102760000220BDE8F081012084F83C0000BF022077
:1027700084F83D002068866826F0770626F47F46B8
:10278000206886602868502833D00CDC202850D080
:1027900004DC00284BD0102851D149E0302849D022
:1027A00040284CD139E060282DD0702807D0B0F5F2
:1027B000805F03D0B0F5005F41D10DE041E0D5E985
:1027C00002136A68206801F092FA2068866846F071
:1027D00077062068866034E0D5E902136A682068CD
:1027E00001F085FA2068806840F4804021688860A4
:1027F00027E0EA686968206801F06AFB50212068D8
:1028000001F080FA1DE0EA686968206801F073FB56
:102810006021206801F076FA13E0EA6869682068B0
:1028200001F056FB4021206801F06CFA09E000BF7E
:1028300000BF00BF2968206801F064FA01E00127A9
:1028400000BF00BF012084F83D0000BF002084F8D5
:102850003C0000BF384684E7704710B50446206846
:102860000069C0F34000D8B12068C068C0F34000E0
:10287000B0B16FF002002168086101202077206864
:10288000806900F0030018B12046FFF7E5FF05E07E
:10289000204600F0DBF8204600F08FF9002020777A
:1028A00020680069C0F38000D8B12068C068C0F318
:1028B0008000B0B16FF00400216808610220207729
:1028C0002068806900F4407018B12046FFF7C4FF0B
:1028D00005E0204600F0BAF8204600F06EF900202E
:1028E000207720680069C0F3C000D8B12068C068B4
:1028F000C0F3C000B0B16FF0080021680861042087
:1029000020772068C06900F0030018B12046FFF767
:10291000A3FF05E0204600F099F8204600F04DF9AD
:102920000020207720680069C0F30010D8B120682B
:10293000C068C0F30010B0B16FF0100021680861EA
:10294000082020772068C06900F4407018B1204644
:10295000FFF782FF05E0204600F078F8204600F0FF
:102960002CF9002020772068006900F0010058B1A0
:102970002068C06800F0010030B16FF001002168EC
:102980000861204600F0A0F920680069C0F3C0107B
:1029900058B12068C068C0F3C01030B16FF080003B
:1029A000216808612046FFF7ADFD20680069C0F38B
:1029B000801058B12068C068C0F3801030B16FF04B
:1029C000400021680861204600F0C0FB20680069D3
:1029D000C0F3401058B12068C068C0F3401030B157
:1029E0006FF02000216808612046FFF78CFD10BDC4
:1029F00010B586B00446142101A8FDF73FFC2068FD
:102A0000B0F1804F1CD100BF002000900D4800683D
:102A100040F001000B4908600846006800F0010022
:102A2000009000BF00BF20200190022002900020F3
:102A3000039004900120059001A90348FEF78AFF46
:102A400006B010BD303802400000024070472DE94A
:102A5000F04104460D461646002700BF94F83C009E
:102A6000012802D10220BDE8F081012084F83C0059
:102A700000BF36B1042E1BD0082E31D00C2E5ED1F3
:102A800045E02946206801F047F92068806940F058
:102A90000800216888612068806920F004002168AE
:102AA000886120688069296908432168886148E055
:102AB0002946206801F068F92068806940F40060C8
:102AC000216888612068806920F4806021688861BD
:102AD00020688069296940EA01202168886130E026
:102AE0002946206801F08EF92068C06940F008008E
:102AF0002168C8612068C06920F004002168C861AD
:102B00002068C069296908432168C86119E029461D
:102B1000206801F0B3F92068C06940F400602168C2
:102B2000C8612068C06920F480602168C86120689D
:102B3000C069296940EA01202168C86101E00127D4
:102B400000BF00BF00BF002084F83C0000BF384633
:102B500089E710B504460CB9012010BD94F83D007A
:102B600028B9002084F83C00204600F025F8022017
:102B700084F83D00211D206801F03CF8012084F814
:102B8000460000BF84F83E0001213F20015540204F
:102B900001554120015500BF00BF012084F84200CB
:102BA00043200155442001554520015500BF012017
:102BB00084F83D000020D0E77047704770B50446A8
:102BC0000D4615B994F83E000BE0042D02D13F20CC
:102BD000005D06E0082D02D14020005D01E04120AB
:102BE000005D012801D0012070BD1DB9022084F8CC
:102BF0003E000EE0042D03D102213F20015508E0E4
:102C0000082D03D102214020015502E0022141207C
:102C1000015501222946206801F058F8234920680F
:102C2000884203D022492068884201D1012000E077
:102C3000002028B12068406C40F4004021684864BE
:102C40001A49206888421BD02068B0F1804F17D005
:102C500018492068884213D01749206888420FD04D
:102C60001649206888420BD011492068884207D055
:102C700013492068884203D01249206888420CD149
:102C80002068806800F00706062E0CD020680068D7
:102C900040F001002168086005E02068006840F00D
:102CA00001002168086000209EE70000000001404C
:102CB000000401400004004000080040000C0040F7
:102CC000004001400018004010B52DED028B044675
:102CD000FE48844204D1FE480068401CFC4908605C
:102CE000FC48844239D1FC48407A022802D1FB4892
:102CF000006870B1FA480078012803D0F9480078DC
:102D000001280DD1F8480078012809D1F34800685E
:102D100030B9EF480068F54908600120EF490860C4
:102D2000ED48407A012802D1EC48006870B1EC48C7
:102D30000078012803D0EB48007801280DD1EC4839
:102D40000078012809D1E548006830B9E0480068FA
:102D5000E64908600220E1490860E048006803286D
:102D60001AD1DD48007A01280FD0DD48007801280B
:102D700003D0DC48007801280ED1DD480078012816
:102D80000AD1D6480068032806D1D1480068D7493F
:102D900008600220D1490860D048006802287DD12F
:102DA0009FEDD40AB0EE408A9FEDD30AF0EE408A40
:102DB000D248D349097800EB810090ED000AB0EECB
:102DC000408AD048CE49097800EB810090ED000A96
:102DD000F0EE408ABE480068C4490968401AB0F560
:102DE000FA7F19D29FEDC30AC74880ED000AC74891
:102DF00090ED000AC64880ED000AB5480068BB495E
:102E00000968401A03D1C3480088C34908609FED90
:102E1000C30A01F03DFFE0E0AD480068B34909682E
:102E2000411ABF48006800F5FA70814213D2B648D3
:102E300080ED008AB54890ED000AB54880ED000AA3
:102E400000220121B748FEF78DFE00220221B5487D
:102E5000FEF788FEC1E09E480068A4490968411A4F
:102E6000AF480068B04A1268104400F5FA70814219
:102E70001ED2A54880ED008AA44890ED000AA4481F
:102E800080ED000A9248006898490968411AA448F0
:102E9000006800F2F510814205D200E09EE09D48F6
:102EA00000889D490860B0EE680A01F0F1FE94E0E8
:102EB000874800688D490968411A994800689A4A0C
:102EC00012681044994A1268104400F5FA70814261
:102ED00013D28D4880ED008A8C4890ED000A8C4812
:102EE00080ED000A002201218E48FEF73BFE002201
:102EF00002218C48FEF736FE6FE0754800687B497A
:102F00000968411A86480068874A12681044874A4F
:102F100012681044824A1268104400F5FA70814227
:102F200024D29FED740A784880ED000A774890ED2E
:102F3000000A774880ED000A654800686B49096817
:102F4000411A77480068784A12681044774A126834
:102F5000104400F2F510814203D26E4800886E4999
:102F600008609FED730A01F093FE36E05848006850
:102F70005E490968411A6A4800686B4A1268104441
:102F80006A4A12681044664A1268104400F57A7062
:102F9000814215D29FED570A5B4880ED000A6548D3
:102FA00090ED000A5A4880ED000A002201215D4898
:102FB000FEF7D8FD002202215A48FEF7D3FD0CE0AF
:102FC0005C4890ED000A524880ED000A43480068D2
:102FD0005949086000204149086074E03F48006892
:102FE000012870D13A48006840490968401AB0F594
:102FF000FA7F14D24F4890ED000A454880ED000A50
:103000003348006839490968401A03D141480088AB
:10301000414908609FED490A01F03AFE53E02C480F
:10302000006832490968411A4548006800F5FA709D
:10303000814210D2354890ED000A354880ED000AF3
:10304000002201213748FEF78DFD0022022135487C
:10305000FEF788FD37E01E48006824490968411AD8
:1030600037480068374A1268104400F5FA70814208
:1030700019D2264890ED000A254880ED000A144830
:1030800000681A490968411A2D48006800F2F510D5
:10309000814203D21F4800881F4908609FED1F0A24
:1030A00001F0F6FD0FE0194890ED000A184880ED98
:1030B000000A0A48006820490860032007490860A0
:1030C000002021490870BDEC028B10BD9002002049
:1030D000C8010020D8020020300A00200002002091
:1030E0003C0200203D0200203A020020CC010020DA
:1030F00039020020000000000080C5435801002074
:1031000040020020F0000020C4010020F401002053
:10311000C001002060020020F801002000003444BB
:10312000D401002000040240D0010020D80100207A
:1031300000402644F00100200402002000800E44DC
:10314000E0010020DC010020FC01002070477047F6
:10315000704710B504460CB9012010BDA06900B13C
:1031600000E000BF94F83D0028B9002084F83C003E
:10317000204600F027F8242084F83D002068C0682D
:1031800020F400502168C860204601F085F82068CE
:10319000006920F49040216808612068406920F0AF
:1031A0002A00216848612068C06840F40050216806
:1031B000C86000202064202084F83D0084F83E0090
:1031C0000020CAE710B586B00446142101A8FDF717
:1031D00055F8AC49206888424ED100BF00200090CD
:1031E000A948006840F00040A74908600846006808
:1031F00000F00040009000BF00BF00BF0020009022
:10320000A1481038006840F010009F49103908604C
:103210000846006800F01000009000BF00BF0320C7
:1032200001900220029000200390032004900820C7
:10323000059001A99548FEF78DFB954895490860D2
:1032400000054860002193488160C1604FF48061AF
:1032500001610021416181614FF48071C1610021F0
:1032600001624162FEF7A2FA08B1FDF7C7FC00BF98
:103270008848A063846302E187492068884251D16D
:1032800000BF002000908048001D006840F0100042
:103290007D49091D08600846006800F01000009094
:1032A00000BF00BF00BF00200090774810380068C2
:1032B00040F002007449103908600846006800F0C8
:1032C0000200009000BF00BFC020019002200290C9
:1032D00000200390032004900720059001A96F4867
:1032E000FEF738FB6E486F4908604FF00060486099
:1032F00000216C488160C1604FF480610161002150
:10330000416181614FF48071C161002101624162BC
:10331000FEF74CFA08B1FDF771FC00BF6148A063ED
:103320008463ACE060492068884251D100BF00202E
:1033300000905548006840F48020534908600846D2
:10334000006800F48020009000BF00BF00BF002094
:1033500000904D481038006840F004004A49103988
:1033600008600846006800F00400009000BF00BF3D
:103370004FF440600190022002900020039003204F
:1033800004900720059001A94848FEF7E3FA404859
:103390007838474908604FF0006048600021444891
:1033A0008160C1604FF480610161002141618161F0
:1033B0004FF48071C161002101624162FEF7F6F9AC
:1033C00008B1FDF71BFC00BF3948A063846356E0D9
:1033D00038492068884252D100BF002000902A4816
:1033E000001D006840F020002749091D08600846BC
:1033F000006800F02000009000BF00BF00BF002068
:10340000009021481038006840F040001E491039F3
:1034100008600846006800F04000009000BF00BF50
:103420004FF484400190022002900020039003207A
:1034300004900820059001A91F48FEF78BFA184850
:1034400018381E4908608005486000211B488160CB
:10345000C1604FF4806101610021416181614FF4DD
:103460008071C161002101624162FEF79FF908B1DC
:10347000FDF7C4FB00BF1148A063846300BF06B022
:1034800010BD0000007C00404038024000100240A7
:10349000A0600240300400200010014000040240FF
:1034A00040640240900400200048004000080240B0
:1034B000F0040020001401400018024050050020D4
:1034C00070B504460D46164694F83E00202816D1E5
:1034D00005B10EB9012070BD00BF94F83C00012871
:1034E00001D10220F7E7012084F83C0000BF002052
:1034F000206332462946204600F0E4FFEBE7022035
:10350000E9E7000010B504460F49206809688842C1
:1035100004D101200D49086000F002FD0C4920682B
:103520000968884204D101200A49086001F000FBC3
:10353000094920680968884204D1012007490860C8
:1035400000F08AFA10BD0000640300200000002093
:10355000EC030020080000202003002004000020CD
:10356000704700BFFEE7000010B50D480D49086028
:103570000920486000210B488160C1604FF4003190
:10358000016100214161017641768176C176017742
:103590004177FDF789FE08B1FDF730FB10BD000053
:1035A000006400406802002008B500BF00200090C1
:1035B0001E48006840F480001C4908600846006806
:1035C00000F48000009000BF00BF00BF002000900A
:1035D0000846006840F4001008600846006800F4DF
:1035E0000010009000BF00BF002211460C20FEF723
:1035F00049FB0C20FEF736FB002211461120FEF796
:1036000041FB1120FEF72EFB002211463920FEF768
:1036100039FB3920FEF726FB002211463A20FEF73F
:1036200031FB3A20FEF71EFB08BD00003038024097
:1036300000B587B0142102A8FCF720FE00BF0020CF
:1036400001905448006840F0100052490860084654
:10365000006800F01000019000BF00BF00BF002014
:1036600001900846006840F0400008600846006885
:1036700000F04000019000BF00BF00BF002001909B
:103680000846006840F0010008600846006800F045
:103690000100019000BF00BF00BF0020019008465C
:1036A000006840F0020008600846006800F0020070
:1036B000019000BF00BF00BF0020019008460068D5
:1036C00040F0080008600846006800F0080001901B
:1036D00000BF00BF00BF002001900846006840F016
:1036E000040008600846006800F00400019000BF74
:1036F00000BF00BF002001900846006840F0200095
:1037000008600846006800F02000019000BF00BF7C
:1037100000BF002001900846006840F0800008606B
:103720000846006800F08000019000BF00BF002242
:1037300003211948FEF716FA002203211748FEF765
:1037400011FA012211031648FEF70CFA0320029029
:103750000120039000200490059002A90E48FEF776
:10376000F9F80320029001200390002004900590B6
:1037700002A90A48FEF7EEF84FF4805002900120AB
:10378000039000200490059002A90548FEF7E2F896
:1037900007B000BD3038024000140240000402406F
:1037A0000010024000B58DB0002009900A900B90E7
:1037B0000C90079008901C216846FCF75FFD4FF0C5
:1037C0008040214908605920486000211E488160DE
:1037D00040F2E731C1600021016180218161FEF783
:1037E000EDFE08B1FDF70AFA4FF48050099009A9DF
:1037F0001548FEF7ABFF08B1FDF700FA1248FFF7D6
:10380000A8F908B1FDF7FAF900200790089007A978
:103810000D48FEF779FE08B1FDF7F0F96020009041
:1038200040F2F310019000200290049000226946BB
:103830000548FFF70CF908B1FDF7E0F90248FFF77A
:10384000D7F80DB000BD00009002002000B587B091
:103850000020039004900590069001900290154876
:10386000154908605920486000211348816040F2E2
:10387000E731C1600021016180218161FEF79EFE78
:1038800008B1FDF7BBF94FF48050039003A90A4833
:10389000FEF75CFF08B1FDF7B1F90020019002903E
:1038A00001A90548FEF730FE08B1FDF7A7F907B0FA
:1038B00000BD000000040040D802002010B50B48F5
:1038C0000B4908604FF49640486000210848816029
:1038D000C16001610C21416100218161C161FFF77B
:1038E00038FC08B1FDF78AF910BD0000007C0040EB
:1038F0002003002010B50A480A4908600A484860B9
:10390000002108488160C16001610C2141610021F2
:103910008161C161FFF71DFC08B1FDF76FF910BDB2
:103920000010014064030020A086010010B50B4880
:103930000B4908604FF496404860002108488160B8
:10394000C16001610C21416100218161C161FFF70A
:1039500000FC08B1FDF752F910BD0000004800401E
:10396000A803002010B50B480B4908604FF4E13064
:103970004860002108488160C16001610C214161FB
:1039800000218161C161FFF7E4FB08B1FDF736F961
:1039900010BD000000140140EC03002000BFFEE752
:1039A00000BFFEE790ED040AD0ED030A30EE600A96
:1039B00080ED050A90ED050AD0ED070A30EE600AA9
:1039C000D0ED000A20EE200AD0ED010A90ED051A94
:1039D00000EE810AD0ED050A90ED071AF0EE001A0C
:1039E00041EEC10A90ED061A70EE810A90ED021ABE
:1039F00001EE200AD0ED080A30EE200A80ED080A18
:103A000090ED070A80ED060A90ED040AD0ED030A56
:103A100030EE600A80ED070A90ED080AD0ED090A41
:103A2000B4EEE00AF1EE10FA03DD90ED090A80ED44
:103A3000080A90ED080AD0ED090AF1EE600AB4EE2A
:103A4000E00AF1EE10FA05D290ED090AB1EE400A53
:103A500080ED080A7047704700202FE01949095C83
:103A6000AB292AD1174A411C515CCD2925D1811C93
:103A7000515C052921D1011D525C124BC11C595CBE
:103A800042EA0121104A118011460988B1F57A7F76
:103A900001DD002111800C49098800EE101AB8EEF2
:103AA000400ADFED0A0A20EE200ADFED090A80EE67
:103AB000201A084981ED001A02E0401C1428CDDBD1
:103AC00000BF7047AB0A0020600200200000B44332
:103AD000000080465402002010B514220249034819
:103AE000FFF7EEFC10BD0000AB0A00202003002011
:103AF000704710B5FEF742F810BD000000B593B056
:103B0000302107A8FCF7BAFB142102A8FCF7B6FB8A
:103B100000BF002001902648006840F080502449F2
:103B200008600846006800F08050019000BF00BFA8
:103B300000BF002001901F48006840F440401D492C
:103B400008600846006800F44040019000BF00BFD4
:103B5000012007900004089002200D9041050E916D
:103B600006210F91B421109102211191042112918B
:103B700007A8FEF75FFA08B1FDF740F8FEF7D4F8A2
:103B800008B1FDF73BF80F200290022003900020BF
:103B900004904FF4A05005904FF4805006900521FA
:103BA00002A8FEF707F908B1FDF728F813B000BD29
:103BB00040380240007000400548006840F4700042
:103BC000034908604FF00060014980390860704780
:103BD00088ED00E010B50248FEF73FFE10BD000082
:103BE0009002002010B50248FEF737FE10BD00001D
:103BF000D802002010B50268294B98420ED0B0F1CF
:103C0000804F0BD0274B984208D0274B984205D0C5
:103C1000264B984202D0264B984203D122F07002E4
:103C20004B681A431E4B984220D0B0F1804F1DD0F4
:103C30001C4B98421AD01C4B984217D01B4B9842F1
:103C400014D01B4B984211D01A4B98420ED01A4BED
:103C500098420BD0194B984208D0194B984205D086
:103C6000184B984202D0184B984203D122F440726C
:103C7000CB681A4322F080034C6943EA04020260D5
:103C80008B68C3620B688362054B984202D0084B75
:103C9000984201D10B6903630123436110BD000009
:103CA000000001400004004000080040000C0040FB
:103CB0000004014000400140004401400048014030
:103CC00000180040001C00400020004030B501F00A
:103CD0001F05012404FA05F3046A9C430462046A84
:103CE00001F01F0502FA05F52C43046230BD30B522
:103CF0000C46816821F47F4142EA0325254329438C
:103D0000816030BD0A46816821F0700142F00703EE
:103D1000194381607047000030B5056A25F0010540
:103D20000562026A4368846924F0700424F0030485
:103D30000D682C4322F002028D682A43104DA842E0
:103D400000D103E00F4DA84206D100BF22F00802C7
:103D5000CD682A4322F00402094DA84202D0094D41
:103D6000A84207D123F4807323F400734D692B43D9
:103D70008D692B43436084614D684563026230BDA9
:103D8000000001400004014030B5056A25F010052F
:103D90000562026A4368846924F4E04424F44074B0
:103DA0000D6844EA052422F020028D6842EA0512DB
:103DB000124DA84200D103E0114DA84207D100BF27
:103DC00022F08002CD6842EA051222F040020B4D3B
:103DD000A84202D00A4DA84209D123F4806323F4FB
:103DE00000634D6943EA85038D6943EA85034360B7
:103DF00084614D688563026230BD000000000140AF
:103E00000004014030B5056A25F480750562026A38
:103E10004368C46924F0700424F003040D682C4343
:103E200022F400728D6842EA0522124DA84200D1A8
:103E300003E0114DA84207D100BF22F40062CD6813
:103E400042EA052222F480620A4DA84202D00A4DBD
:103E5000A84209D123F4805323F400534D6943EA67
:103E600005138D6943EA05134360C4614D68C5635A
:103E7000026230BD000001400004014030B5056A17
:103E800025F480550562036A4468C26922F4E04261
:103E900022F440720D6842EA052223F400538D6833
:103EA00043EA0533084DA84202D0084DA84204D188
:103EB00024F480444D6944EA85144460C2614D682D
:103EC0000564036230BD00000000014000040140B1
:103ED00030B50B461446026A056A25F001050562F5
:103EE000816921F0F00141EA041122F00A021A432B
:103EF0008161026230BD30B50B461446056A25F07B
:103F0000100505628169026A21F4704141EA0431B9
:103F100022F0A00242EA03128161026230BD000079
:103F200010B52DED048B634800786249497840EA6A
:103F30000120C0F30A00604908805E484078C01044
:103F40005C49897840EA4110C0F30A005A49488028
:103F50005848807880115749C97840EA810055490E
:103F6000097940EA8120C0F30A005349888051480A
:103F7000007940104F49497940EAC110C0F30A0066
:103F80004D49C8804B484079001180080872494863
:103F90004079C0F3011048724648007C4549497C8D
:103FA00040EA012000B244494881084690F90800DF
:103FB000012804D002283CD0032857D11CE03E49F8
:103FC000B1F90A10A1F58060FCF744FA41EC190B35
:103FD0009FED3A0B53EC102BFCF7CDF941EC180B8D
:103FE000384890ED000B53EC102B51EC180BFCF7FC
:103FF00050F9354A03C23AE02F49B1F90A10A1F548
:104000008060FCF727FA41EC190B9FED2C0B53EC69
:10401000102BFCF7B0F941EC180B2A4890ED000B7F
:1040200053EC102B51EC180BFCF733F9264A03C262
:104030001DE02149B1F90A10A1F58060FCF70AFAE8
:1040400041EC190B9FED1D0B53EC102BFCF793F972
:1040500041EC180B1B4890ED000B53EC102B51EC6E
:10406000180BFCF716F9184A03C200E000BF00BFA6
:10407000114890F90900012804D002280ED0032825
:1040800012D105E09FED110B0E4880ED000B0CE006
:104090009FED100B0B4880ED000B06E09FED0F0B22
:1040A000084880ED000B00E000BF00BFBDEC048BB2
:1040B00010BD00003C0A0020300A00200000000073
:1040C00000A0844018020020200200200000000010
:1040D0000080764000000000008066400000000084
:1040E0000080564070B506460025B46B20684069D4
:1040F000C0F3C01594F83D00212805D125B100205A
:10410000E084204600F0B4F820684069C0F38015D0
:1041100094F83E00222805D125B10020E0852046F4
:1041200000F070F8206C40F0100020642046FFF78B
:104130000FF870BD70B50546AC6B2868006800F4D8
:104140008070002842D1E08500BF00BF21680C319B
:1041500051E8001F21F4807021680C3141E8000211
:10416000002AF3D100BF00BF00BF2168143151E81D
:10417000001F21F001002168143141E80002002AEB
:10418000F3D100BF00BF00BF2168143151E8001F08
:1041900021F040002168143141E80002002AF3D1E7
:1041A00000BF202084F83E00206B01280ED100BF04
:1041B00000BF21680C3151E8001F21F01000216878
:1041C0000C3141E80002002AF3D100BF206B012826
:1041D00004D1A18D2046FEF7BAFF02E02046FFF78A
:1041E00091F970BD70B50546AC6B206B012805D107
:1041F000A08D41082046FEF7AAFF02E02046FFF707
:10420000AFF970BD00BF00BF02680C3252E8002F4A
:1042100022F4907102680C3242E80013002BF3D1B3
:1042200000BF00BF00BF0268143252E8002F22F026
:1042300001010268143242E80013002BF3D100BFE1
:10424000016B01290ED100BF00BF02680C3252E899
:10425000002F22F0100102680C3242E80013002BFC
:10426000F3D100BF202180F83E1000210163704788
:1042700000BF00BF02680C3252E8002F22F0C001DC
:1042800002680C3242E80013002BF3D100BF20215A
:1042900080F83D10704700002DE9F84F0446206873
:1042A000006920F44050E1680843216808612169F1
:1042B000A068084361690843E169084300902068E9
:1042C000C06849F20C618843009908432168C860BE
:1042D0002068406920F44070A16908432168486162
:1042E00076492068884203D075492068884203D106
:1042F000FDF738FE814602E0FDF724FE8146E069C5
:10430000B0F5004F6CD102206168A0FB015003465C
:104310001920A9FB007001462A463846FBF764FFC6
:104320006421B0FBF1F04FEA001A02206168A0FBA3
:1043300001510B461920A9FB00712A463846FBF7AC
:1043400053FF834602206168A0FB015003461920F9
:10435000A9FB00712A463846FBF746FF6421B0FBF3
:10436000F1F000EBC00101EB0010ABEB800032215B
:1043700001EBC0006421B0FBF1F000F0F8000AEBA3
:10438000400A02206168A0FB015003461920A9FBE6
:10439000007001462A463846FBF726FF8346022076
:1043A0006168A0FB015003461920A9FB00712A4651
:1043B0003846FBF719FF6421B0FBF1F000EBC001B8
:1043C00001EB0010ABEB8000322101EBC000642157
:1043D000B0FBF1F000F007005044216888606AE00B
:1043E00004206168A0FB015003461920A9FB00705E
:1043F00001462A463846FBF7F7FE824604206168EC
:10440000A0FB015003461920A9FB007001462A4673
:104410003846FBF7E9FE6421B0FBF1F000EBC00188
:1044200001EB0010AAEB8000322101EB00106421A7
:10443000B0FBF1F000F0F00A04206168A0FB01700D
:1044400003461920A9FB00513A462846FBF7CCFE4B
:104450006421B0FBF1F00AEB001A04206168A0FBB4
:1044600001510B461920A9FB00712A463846FBF77B
:10447000BBFE834604206168A0FB0150034619205F
:10448000A9FB007001462A463846FBF7ADFE6421C1
:10449000B0FBF1F000EBC00101EB0010ABEB8000D2
:1044A000322101EB00106421B0FBF1F000F00F00AD
:1044B000504421688860BDE8F88F0000001001407A
:1044C0000014014077B581B0044615460298A062F9
:1044D000A58500202064222084F83E002A48A16B94
:1044E000C8632A48A16B08642948A16BC8640020EE
:1044F000A16B086502AE32682368191D2B46A06BBC
:10450000FDF7CAF900BF0020009020680068009005
:1045100020684068009000BF00BF00BF002084F802
:104520003C0000BF206970B100BF00BF21680C31A2
:1045300051E8001F41F4807021680C3141E800020D
:10454000002AF3D100BF00BF00BF2168143151E839
:10455000001F41F001002168143141E80002002AE7
:10456000F3D100BF00BF00BF2168143151E8001F24
:1045700041F040002168143141E80002002AF3D1E3
:1045800000BF002004B070BD35410008E5410008BF
:10459000E540000800BFFEE702480068C0F30220C3
:1045A000704700000CED00E010B5002804DB0A079E
:1045B000130E054A135406E00A07140E034A00F0CE
:1045C0000F031B1FD45410BD00E400E018ED00E001
:1045D0002DED020B019820F0004001909DED000BA5
:1045E00002B0704702E008C8121F08C1002AFAD1C1
:1045F00070477047002001E001C1121F002AFBD163
:10460000704700004A780B7842EA032200EE102A35
:10461000B8EEC00ADFED0B0A20EE200AD0ED0D0A3D
:1046200080EE201A80ED021A90ED020A80ED060A53
:1046300090ED060A80ED070A90ED020A80ED080A67
:10464000704700000000B44308B5FDF7A3FAFFF778
:1046500055FAFEF7EDFFFEF7A7FFFEF785FFFFF720
:1046600049F9FFF77FF9FFF79DF8FFF7EFF8FFF73C
:104670005DF9FFF723F9FE48FBF7FAFF0020FD493B
:10468000087081F8900081F8200181F8B00181F86C
:10469000400281F8D002012081F86003002081F8F7
:1046A000F003FCF7CBF81222F349F448FEF708FFB9
:1046B00000F0B8FAF248FDF7F5FFF248FDF7F2FF17
:1046C0000021EF48FEF77AFAEF480068EC490968E4
:1046D000486301221103ED48FDF744FAFFF7FCF9A6
:1046E00021E200BFEA4800680028FBD0E9480068E2
:1046F00000287DD1E848B0F90400A0F58060642866
:1047000008DDE64890ED000ADFEDE50A30EE200A0C
:1047100080ED000AE048B0F90400A0F5806010F1D7
:10472000640F08DADD4890ED000ADFEDDD0A30EEB7
:10473000600A80ED000AD848B0F90600A0F5806054
:10474000642808DDD74890ED000ADFEDD70A30EE87
:10475000600A80ED000AD048B0F90600A0F580603C
:1047600010F1640F08DACF4890ED000ADFEDCE0AB1
:1047700030EE200A80ED000AC748B0F90000A0F52D
:10478000806064280BDD9FEDC90AC94880ED000AEE
:10479000C848C74991ED000A00F06BFA1EE0BE4818
:1047A000B0F90000A0F5806010F1640F0BDA9FED06
:1047B000C20ABF4880ED000ABE48BD4991ED000A1B
:1047C00000F057FA0AE09FEDBD0AB94880ED000AF3
:1047D000B848B74991ED000A00F04BFAAE48B0F97D
:1047E0000200A0F5806064280CDD0022012100E0B9
:1047F00060E0B348FDF7B6F901220221B048FDF7A9
:10480000B1F91CE0A448B0F90200A0F5806010F1F5
:10481000640F0ADA01221146A948FDF7A3F9002224
:104820000221A748FDF79EF909E000220121A448D2
:10483000FDF798F900220221A148FDF793F99D4860
:104840009030984991ED000A00F0F8F99D4893499D
:1048500091ED000A00F0F2F98F48407A012805D165
:104860009FED990A994880ED000A04E09FED930AB4
:10487000964880ED000A7F48944991ED000A00F0C7
:10488000F8F97C489030914991ED000A00F0F1F977
:104890008F488E4991ED000AB1EE400A00F0E9F927
:1048A00084489038894991ED000AB1EE400A00F041
:1048B000E0F9AFE077480068022847D16D488549A4
:1048C00091ED000A00F0D5F96A489030814991EDE8
:1048D000000A00F0CEF97E487E4991ED000AB1EE63
:1048E000400A00F0C6F9734890387A4991ED000A01
:1048F000B1EE400A00F0BDF96E48774991ED000A2B
:1049000000F09CF975487649097800EB8100D0EDFC
:10491000000A644890ED001A70EE810AB0EE600A59
:104920006448903000F08AF96E486D49097800EBD0
:104930008100D0ED000A594890ED001A70EE810A0E
:10494000B0EE600A5F4800F079F963E05148006812
:10495000012829D147489FED590A00F08AF94548B6
:1049600090309FED560A00F084F959489FED530AA4
:1049700000F07FF94F4890389FED500A00F079F928
:104980004C48554991ED000A00F058F949489030DB
:10499000444991ED000A00F051F94A483F4991ED30
:1049A000000A00F04BF935E03A480068032831D19D
:1049B00030489FED420A00F05CF92E4890309FEDA0
:1049C0003F0A00F056F942489FED3C0A00F051F9C9
:1049D000384890389FED390A00F04BF93548BAEE67
:1049E000000A00F02BF9002201213548FDF7BAF842
:1049F000002202213248FDF7B5F82E4890302949AF
:104A000091ED000A00F01AF92E48244991ED000AB0
:104A100000F014F9174890ED820ABDEEC00A10EEBE
:104A2000100A00B20090134890ED5E0ABDEEC00A75
:104A300010EE100A03B20F4890ED3A0ABDEEC00A1C
:104A400010EE100A02B20B4890ED160ABDEEC00A35
:104A500010EE100A01B20648FBF742FE19489030EA
:104A600090ED160ABDEEC00A10EE100A00B23BE04F
:104A700068020020B00500203C0A002064030020EA
:104A800090020020D80200200C00002000100240FC
:104A90000000002000020020300A00201400002046
:104AA000CDCC4C3D18000020CDCCCC3D00001643B1
:104AB0001C000020F0070020000016C300000000CA
:104AC000000402401009002000409C451000002016
:104AD000D0060020C4010020C00100208800002072
:104AE000400200202000002000900F4890EDEE0AC8
:104AF000BDEEC00A10EE100A03B20B4890EDCA0AD0
:104B0000BDEEC00A10EE100A02B2074890EDA60AE8
:104B1000BDEEC00A10EE100A01B20448FBF71CFEFD
:104B20000120FCF703FFDCE5B0050020680200204F
:104B300010B588B000244FE02A4801191F226846AA
:104B4000FBF783FB9DF80000FF2844D19DF801008E
:104B5000AA2840D19DF8020055283CD19DF80300B9
:104B6000992838D1204901980860204902980860A6
:104B70001F49039808601F49049808609DF81400B5
:104B80001D4908709DF815001C4908709DF8160015
:104B90001B4908709DF817001A4908709DF8180005
:104BA000194908709DF81900184908709DF81A00F5
:104BB000174908709DF81B00164908709DF81C00E5
:104BC000154908709DF81D00144908709DF81E00D5
:104BD0001349087002E0641C3E2CADDB00BF08B036
:104BE00010BD00006D0A0020280200202C020020C9
:104BF0003002002034020020380200203902002058
:104C00003A0200203B0200203C0200203D0200202E
:104C10003E0200203F02002040020020410200200E
:104C20004202002010B53E2202490348FEF748FC2C
:104C300010BD00006D0A0020EC03002000B5B0EEAE
:104C4000402A024682ED1D2A92ED0A0A82ED1C0AD4
:104C500002F16400FEF7A6FE92ED210A82ED120A2F
:104C600092ED030A82ED110A02F13800FEF79AFE76
:104C700000BD00B5B0EE402A024682ED122A92ED48
:104C8000030A82ED110A02F13800FEF78BFE00BD27
:104C900010B52DED068BB0EE408AB0EE000A78EE2E
:104CA000400A6748008800EE100AB8EE400AF4EEA9
:104CB000C00AF1EE10FA53DD61490988614A1268B1
:104CC000881AFBF7D8FB41EC1A0BB0EE4A0AF0EE5B
:104CD0006A0AFFF77DFCB0EE409AF0EE609A9FED15
:104CE0005A0B53EC102B51EC190BFBF7E5FB21D3BE
:104CF0005348008800EE100AB8EE400A30EE480A29
:104D000010EE101A0846FBF7C3FB41EC1A0BB0EE8D
:104D10004A0AF0EE6A0AFFF75BFCB0EE409AF0EE4A
:104D2000609A9FED490B53EC102B51EC190BFBF7DC
:104D3000C3FB05D24648006846490968486304E059
:104D400040F2E730434909684863002201214248A4
:104D5000FCF708FF012202213F48FCF703FF6CE04B
:104D6000B0EE000A78EE000A3548008800EE100A1E
:104D7000B8EE400AF4EEC00AF1EE10FA53D2304910
:104D80000988304A1268881AFBF775FB41EC1A0B48
:104D9000B0EE4A0AF0EE6A0AFFF71AFCB0EE409A4B
:104DA000F0EE609A9FED280B53EC102B51EC190B91
:104DB000FBF782FB21D32248008800EE100AB8EEF0
:104DC000400A30EE480A10EE101A0846FBF760FB66
:104DD00041EC1A0BB0EE4A0AF0EE6A0AFFF7F8FB54
:104DE000B0EE409AF0EE609A9FED170B53EC102B4B
:104DF00051EC190BFBF760FB05D240F28F101549FF
:104E00000968486304E040F2F310124909684863F6
:104E1000012211461048FCF7A5FE002202210E488F
:104E2000FCF7A0FE09E0002201210B48FCF79AFEE6
:104E3000002202210848FCF795FEBDEC068B10BD50
:104E400060020020F801002000000000000069401E
:104E50000C00002090020020000402400006101602
:104E6000000610160000000000000000010203040C
:104E70000607080900000000010203049C4E000818
:104E8000000000206802000004060008004F00082F
:104E900068020020580C0000F4450008C1031220ED
:104EA0000325E3653B4273A0C062405AA008014657
:104EB0001CE365376433803F6241390C9908014631
:104EC00015333333413C404444040B5C8045040CAF
:104ED00063409C4504F1232C014BE803044BDC05A3
:104EE000081A2004212316C323344323B041032589
:104EF00040C104288076403210197B21031524F428
:04000005080001AD41
:00000001FF
